:100000000C947B010C94182A0C94452A0C94A3019F
:100010000C94A3010C9445070C941E0C0C94A301A2
:100020000C94A3010C94731F0C94A3010C94A301D2
:100030000C94A3010C94A3010C94A3010C94A301B0
:100040000C94722A0C94A3010C94DE2C0C942C2D8D
:100050000C94A3010C94A3010C94A3010C94A30190
:100060000C94A3010C94A301417578007F008800D3
:1000700091009A00A00042756C6252616D70006937
:100080006E74657276616C0064656C61793173744D
:10009000006475726174696F6E00737461727400CC
:1000A000656E6400B400BC00C500CE00D3004C6196
:1000B000736572004F6E204D616B65004F6E20427C
:1000C0007265616B004F6E2043686E6765007479DE
:1000D00070650064656C6179004C696768740053F1
:1000E0006F756E6400E900F2007468726573686C85
:1000F000640064656C617900090112011B01220131
:1001000054696D654C61707300696E7465727661D7
:100110006C0064656C6179317374002373686F746B
:1001200073006578706F73757265003D0146014C10
:100130000151015901610141726D65640074687279
:100140006573686C640064656C61790074797065CE
:10015000004F6E2052697365004F6E2046616C6CD3
:10016000004F6E2043686E67650079017F0187014B
:10017000900153797374656D00466F637573005316
:1001800068757474657200495272656D6F746500AC
:10019000436F6E74726173740000000000240027C6
:1001A000002A0000000000250028002B00000000AD
:1001B00000230026002900040404040404040402AB
:1001C00002020202020303030303030102040810F4
:1001D00020408001020408102001020408102000C1
:1001E00000000700020100000304060000000000F8
:1001F00000000000407A10F35A00A0724E18090067
:1002000010A5D4E80000E87648170000E40B54027B
:100210000000CA9A3B000000E1F5050000809698B6
:1002200000000040420F000000A086010000001006
:100230002700000000E80300000000640000000048
:10024000000A00000000000100000000002C76D829
:1002500088DC674F0823DFC1DFAE59E1B1B796E50F
:10026000E3E453C63AE651997696E8E6C28426EB73
:10027000898C9B62ED407C6FFCEFBC9C9F40F2BA86
:10028000A56FA5F490055A2AF75C936B6CF9676D1E
:10029000C11BFCE0E40D47FEF520E6B500D0ED9073
:1002A0002E0300943577050080841E080000204E40
:1002B0000A000000C80C333333330F986E128311D9
:1002C00041EF8D2114893BE65516CFFEE6DB18D1B0
:1002D000844B381BF77C1D901DA4BBE42420328482
:1002E000725E228100C9F124ECA1E53D2700910452
:1002F000F204B707112E11241FBECFEFD8E0DEBFE6
:10030000CDBF12E0A0E0B1E0E8EBF2E602C005905C
:100310000D92AE3DB107D9F716E0AEEDB2E001C0E7
:100320001D92AF37B107E1F712E0C6EFD2E004C08B
:100330002297FE010E941F31CE3ED107C9F70E94CD
:10034000672E0C945A310C940000EF92FF920F9399
:100350001F93F22FF02E47FD02C0E4E001C0E4E15C
:10036000242F332727FD309537FF03C03095219583
:100370003F4F4F2D512F0F2FEE2E0E9447028F2DF2
:10038000912F1F910F91FF90EF900895FB01DC01D9
:1003900005900D920020E1F70895FB01DC010D901E
:1003A0000020E9F7119701900D920020E1F70895E0
:1003B000A0E0B0E0EEEDF1E00C942D317C01EB011A
:1003C0008A01690109C0CE012196F6010995F7015C
:1003D00081937F010150104001151105A1F7CDB7A0
:1003E000DEB7E8E00C944931A0E0B0E0EAEFF1E0DC
:1003F0000C942D31EC017B018A01690109C0CE0109
:100400002196F70161917F01F60109950150104095
:1004100001151105A1F7CDB7DEB7E8E00C9449311D
:10042000FB019F01E8944230C4F04532B4F44A30F5
:1004300029F497FB1EF4909581959F4F642F7727A1
:100440000E94B930805D8A330CF0895D8193CB01C5
:100450000097A1F716F45DE251931082C9010C9444
:100460008104FB019F01423074F0453264F4642F33
:1004700077270E94B930805D8A330CF0895D8193C3
:10048000CB010097A1F71082C9010C948104A9E067
:10049000B0E0EDE4F2E00C9427316A01122FA02EB7
:1004A000BE2C2BE3201718F42CE3922E02C0902EC2
:1004B0009394AE014F5F5F4F27E0092D0E94A9037F
:1004C000BC018981E82EFF24C701897090700197D3
:1004D00011F4ADE209C0B1FE02C0ABE205C0B0FC50
:1004E00002C0A0E001C0A0E2E3FE3BC0AA2311F4D9
:1004F00023E001C024E0211710F020E002C0121B0D
:10050000212FEB2CB4FE02C0322F0AC0F601322F8D
:1005100080E202C0819331503323E1F7C20ED11C37
:10052000AA2319F0F601A1936F01F6013196E2FEBC
:1005300005C09EE4D6019C9381E404C09EE6D601EA
:100540009C9381E611968C9391833296DF01832FE1
:1005500090E202C09D9381508823E1F7E30FF11DE3
:1005600040C0E2FE42C0AA2311F423E001C024E00F
:10057000211710F020E002C0121B212FEB2CB4FE3B
:1005800002C0922F0AC0F601922F80E202C081932E
:1005900091509923E1F7C20ED11CAA2319F0F6015C
:1005A000A1936F01F6013196E2FE08C089E4D601FD
:1005B0008C938EE411968C9386E407C089E6D6016D
:1005C0008C938EE611968C9386E681833296DF01BA
:1005D000892F20E202C02D9381508823E1F7E90F93
:1005E000F11D10822EEF3FEFAFC0161617061CF05C
:1005F00041E050E003C0AB014F5F5F4FAA2019F408
:1006000080E090E003C08A2D90E0019620E030E089
:10061000AA2311F021E030E0240F351F280F391FE5
:10062000812F90E02817390714F020E002C0121B38
:10063000212F4B2D50E0CA0180719070B4FC0DC089
:10064000B3FC0BC0F601322F40E202C0419331509F
:100650003323E1F7C20ED11C01C0322FAA2319F0B7
:10066000F601A1936F01892B11F0132F0AC0F60137
:10067000132F80E302C0819311501123E1F7C30EC1
:10068000D11C092D060FBA8090E1892E912C8E2065
:100690009F20E4FE04C0F1E3BF1609F401501016D8
:1006A00014F001E003C0093008F008E09B0177FF77
:1006B00002C020E030E0CB010196821B930BFE01CB
:1006C0003196E80FF91F8EE2F82E3B01601A71088F
:1006D0008A2D90E044275527481B590B8FEF2F3F59
:1006E000380719F4D601FD926D01621773072CF0DB
:1006F0006216730614F4808101C080E321503040FB
:1007000031962417350724F0D6018D936D01E6CF7D
:100710002617370749F4B5E3BB1528F0BB1621F4BB
:100720008114910409F481E3F6018193D601812FAC
:1007300090E202C09C93815011968823D9F7E10F73
:10074000F11D108220E030E0C9012996EEE00C9402
:100750004331283008F027E03327DA01990F311DA3
:1007600087FD916000966105710539F432602E5F56
:100770003D9330E32A95E1F708959F3F30F08038AC
:100780007105610509F03C5F3C5F3D93913008F0D5
:100790008068911DDF93CF931F930F93FF92EF9289
:1007A000192F987F9695E92F96959695E90FFF2733
:1007B000E35BFD4F99273327EE24FF24A701E701D0
:1007C00005900894079428F4360FE71EF81E491F79
:1007D000511D660F771F881F991F0694A1F705907A
:1007E000079428F4E70EF81E491F561FC11D770F06
:1007F000881F991F661F0694A1F70590079428F497
:10080000F80E491F561FC71FD11D880F991F661F5D
:10081000771F0694A1F70590079420F4490F561FFF
:10082000C71FD81F990F661F771F881F0694A9F747
:1008300084911095177041F0D695C79557954795B7
:10084000F794E7941A95C1F7E3EFF1E068941590F7
:10085000159135916591959105907FE27395E11819
:10086000F10A430B560BC90BD009C0F7E10CF11E7E
:10087000431F561FC91FD01D7EF4703311F48A9593
:10088000E6CFE894015030F0080F0AF40027021771
:1008900008F4202F2395022F7A3328F079E37D93F3
:1008A0002A95E9F710C07D932A9589F606949795C5
:1008B0006795379517951794E118F10A430B560B76
:1008C000C90BD00998F023957E9173957A3308F07F
:1008D00070E37C932013B8F77E9170617D9330F0C4
:1008E000839571E37D9370E32A95E1F71124EF90EE
:1008F000FF900F911F91CF91DF91992787FD9095E0
:100900000895DC01FC01672F71917723E1F732979D
:1009100004C07C916D9370836291AE17BF07C8F3DA
:1009200008958EED92E00E94F10D08958EED92E013
:100930000E94A40D8EED92E00E94890D8823E1F0C3
:100940008EED92E00E94A00D0197B1F08EED92E045
:100950000E94A00D892B81F08EED92E00E94A00DE7
:10096000029751F08EED92E00E94A00D039721F0C6
:100970008EED92E00E94A00D08958EED92E00E940F
:10098000A80D0895449A459AE9EBF0E080818E7FA6
:10099000808380818D7F808380E28093B80084E4AF
:1009A0008093BC0008951092BC000895662319F04E
:1009B000449A459A0895449845980895FC01809179
:1009C0009B0490919D04981B90939C04882319F498
:1009D00010929C040895815080939B04E90FF11DAF
:1009E000828108950895EF92FF920F931F930E94C2
:1009F000C62A7B018C0184E98093BC001BC02115B1
:100A00003105E1F00E94C62A6E197F09800B910B17
:100A100020919E0430919F0440E050E062177307DC
:100A20008407950738F01092BC0084E48093BC00E2
:100A300081E009C020919E0430919F048091BC0008
:100A400084FDDDCF80E01F910F91FF90EF9008951E
:100A5000CF92DF92EF92FF921F93162F0E94C62A29
:100A60006B017C01112311F084EC01C084E88093B8
:100A7000BC001BC021153105E1F00E94C62A6C198B
:100A80007D098E099F0920919E0430919F0440E0CA
:100A900050E0621773078407950738F01092BC0086
:100AA00084E48093BC0091E019C020919E043091B1
:100AB0009F048091BC0087FFDDCF8091B900887FC3
:100AC000883349F49091B900987F1092BC0084E477
:100AD0008093BC0003C09091B900987F892F1F912B
:100AE000FF90EF90DF90CF900895EF92FF920F93D9
:100AF0001F93CF93DF93EC016093BB000E94C62A43
:100B00007B018C0184E88093BC001BC0211531055A
:100B1000E1F00E94C62A6E197F09800B910B20918B
:100B20009E0430919F0440E050E0621773078407F1
:100B3000950738F01092BC0084E48093BC0011E06B
:100B400020C020919E0430919F048091BC0087FFBB
:100B5000DDCF8091B900887F883211F410E011C098
:100B60001091B900187F8091B900887F803321F4FB
:100B7000CE010E94F30405C01092BC0084E480936F
:100B8000BC00812FDF91CF911F910F91FF90EF90CB
:100B90000895EF92FF920F931F93CF93DF93EC0191
:100BA0006093BB000E94C62A7B018C0184E880937D
:100BB000BC001BC021153105E1F00E94C62A6E1948
:100BC0007F09800B910B20919E0430919F0440E09F
:100BD00050E0621773078407950738F01092BC0045
:100BE00084E48093BC0011E01DC020919E043091EC
:100BF0009F048091BC0087FFDDCF8091B900887F82
:100C0000883179F08091B900887F803499F409C0E7
:100C10008091B900887F8834B1F4CE010E94F3043A
:100C200001C010E0812FDF91CF911F910F91FF90B4
:100C3000EF9008951091B900187F8091B900887FD6
:100C4000803231F7EACF1092BC0084E48093BC007C
:100C5000E9CFEF92FF920F931F930E94C62A7B0168
:100C60008C0184EA8093BC001BC021153105E1F0A2
:100C70000E94C62A6E197F09800B910B20919E0459
:100C800030919F0440E050E0621773078407950796
:100C900038F01092BC0084E48093BC0091E021C045
:100CA00020919E0430919F048091BC0087FFDDCF8E
:100CB0008091B900887F883099F08091B900887F51
:100CC0008031A9F40DC09091B900987F1092BC00BA
:100CD00084E48093BC0005C09091B900987F01C066
:100CE00090E0892F1F910F91FF90EF9008958091D0
:100CF000B900887F883381F7E6CFEF92FF920F9398
:100D00001F93CF93DF93EC01162F042FE22E109246
:100D10009B0410929C04222311F4EE24E394EA94A1
:100D2000E982E3941882CE010E94290688838823F1
:100D300009F061C0110FCE01612F0E94C90588839F
:100D4000882329F0813009F056C082E054C0CE01DA
:100D5000602F0E9475058883882329F0813009F06F
:100D60004AC083E048C0CE010E94290688838823B8
:100D700029F0813009F03FC084E03DC01F5FCE0103
:100D8000612F0E94C9058883882319F48E01FF24EE
:100D900025C0813081F585E02EC08981F81651F497
:100DA000CE0160E00E9428058883813019F18835E2
:100DB00051F021C0CE0161E00E9428058883813076
:100DC000C9F08035C1F48091BB00F8018283F394AF
:100DD000F0929B04F0929D040F5F1F4FFE14E8F207
:100DE000CE010E94F3048883882329F0813019F40E
:100DF00087E001C086E0DF91CF911F910F91FF90B6
:100E0000EF9008950E947D060895FF920F931F931F
:100E1000CF93DF93EC01162F042FF22E18820E943D
:100E200029068883882341F5110FCE01612F0E9486
:100E3000C9058883882321F08130F1F482E01CC049
:100E4000CE01602F0E9475058883882339F4CE0176
:100E50006F2D0E9475058883882319F0813061F415
:100E60000AC0CE010E94F3048883882329F08130D0
:100E700019F487E001C083E0DF91CF911F910F91BA
:100E8000FF9008950E94050708951F920F920FB6D4
:100E90000F921124EF92FF920F931F932F933F9382
:100EA0004F935F936F937F938F939F93AF93BF9372
:100EB000CF93DF93EF93FF93E0910C05F0910D0535
:100EC0002081909111059227E0910E05F0910F0578
:100ED00080819823A9F120931105C2E1D5E0E92E84
:100EE000FF24022F10E020C08381282F30E0C701AB
:100EF00082239323892BB9F08281813069F082307B
:100F000029F420233123232B39F00DC0833059F4E9
:100F100020233123232B39F084818093DB0401903B
:100F2000F081E02D09952296E881F9813097E1F66C
:100F30008BB39091100589238BBB882309F0BCCF1C
:100F4000FF91EF91DF91CF91BF91AF919F918F91E1
:100F50007F916F915F914F913F912F911F910F91D1
:100F6000FF90EF900F900FBE0F901F901895E2EC3E
:100F7000F4E0118210821282359684E0EB3DF8078E
:100F8000C1F7E1EBF1E0859194919093DD048093BA
:100F9000DC048BE690E09093DF048093DE0481E034
:100FA0008093E004A2EEB4E01D921D92E4E0A43F21
:100FB000BE07D1F723EB31E0F901859194911196A9
:100FC0009C938E938CE690E013969C938E9312974D
:100FD00082E014968C93149716961D921D92F5E05C
:100FE000AC30BF07D1F725EB31E0F9018591949141
:100FF00011969C938E938DE690E013969C938E931E
:10100000129784E014968C931497FD0136961192F2
:10101000119285E0E432F807D1F70895FC011382BC
:1010200012828BE591E0918380830895DC01ED913C
:10103000FC910680F781E02D40E009950895FC01C0
:101040006581862F846085836C60CF010E941608BD
:101050000895FC0165816B7F658368600E941608B6
:101060000895DF93CF93CDB7DEB760970FB6F894AE
:10107000DEBF0FBECDBF9C01FE013196ABE6B1E0F5
:1010800088E00D9001928150E1F7FE013996A3E6C8
:10109000B1E088E00D9001928150E1F7F90197816C
:1010A000491710F0492F4150F9018085803151F4E2
:1010B000943041F4E42FF0E0EE0FFF1FEC0FFD1F22
:1010C000818507C0E42FF0E0EE0FFF1FEC0FFD1F3E
:1010D0008181680F6068C9010E94160860960FB68A
:1010E000F894DEBF0FBECDBFCF91DF910895DC0134
:1010F000ED91FC910680F781E02D41E0099581E0BA
:1011000090E0089561E00E94160880ED97E00E944B
:101110002D2B08950F931F938C01FC01838561E0B3
:101120000E94362CF801838560E00E94362C1F91C6
:101130000F910895CF92DF92EF92FF920F931F933A
:10114000CF93DF93D82EC92E282F392FC9018C01B8
:10115000C0E0D0E0E62EFF24B7010C2E02C075954A
:1011600067950A94E2F76170F80184850E94362C35
:1011700021960F5F1F4FC830D10571F78D2D9C2D23
:101180000E948A08DF91CF911F910F91FF90EF90FD
:10119000DF90CF900895CF92DF92EF92FF920F935E
:1011A0001F93CF93DF93D82EC92E282F392FC90133
:1011B0008C01C0E0D0E0E62EFF24B7010C2E02C067
:1011C000759567950A94E2F76170F80184850E942D
:1011D000362C21960F5F1F4FC430D10571F78D2D2E
:1011E0009C2D0E948A08DF91CF911F910F91FF9053
:1011F000EF90DF90CF9008951F93CF93DF93EC0192
:10120000162F8985642F0E94362C8A858F3F19F00E
:1012100060E00E94362C8C8184FF05C0CE01612FD6
:101220000E949A080EC0612F70E084E07595679562
:101230008A95E1F7CE010E94CB08CE01612F0E9472
:10124000CB08DF91CF911F910895CF93DF93EC01ED
:10125000423018F08C8188608C834F83688722230A
:1012600029F0413019F48C8184608C8380E593EC03
:101270000E942D2B898560E00E94362C8B8560E0D2
:101280000E94362C8A858F3F19F060E00E94362C30
:101290006C8164FD1DC0CE0163E00E94CB0884E92F
:1012A00091E10E942D2BCE0163E00E94CB0884E9DE
:1012B00091E10E942D2BCE0163E00E94CB0886E9CC
:1012C00090E00E942D2BCE0162E00E94CB0816C058
:1012D0006062CE010E94160884E991E10E942D2BE4
:1012E0006C816062CE010E94160886E990E00E943F
:1012F0002D2B6C816062CE010E9416086C816062A9
:10130000CE010E94160884E08D83CE010E941F0842
:10131000CE010E94820882E08E83CE0166E00E94A8
:101320001608DF91CF9108956F927F928F92AF92BE
:10133000CF92EF920F931F93DF93CF93CDB7DEB78A
:101340003C01162F8E2DF301418722870387E48607
:10135000C586A68687869D85908B9E85918B9F8569
:10136000928B9889938B61E00E94F72BF30185851E
:1013700061E00E94F72BF301868561E00E94F72B64
:10138000F301878561E00E94F72B1123A1F4F3019B
:10139000808961E00E94F72BF301818961E00E945E
:1013A000F72BF301828961E00E94F72BF301838917
:1013B00061E00E94F72BF301818561E00E94F72B29
:1013C000F30182858F3F19F061E00E94F72BF30152
:1013D000838561E00E94F72B112319F0F301148239
:1013E00003C080E1F3018483CF91DF911F910F91BE
:1013F000EF90CF90AF908F907F906F9008955F9215
:101400006F927F928F929F92AF92BF92CF92DF9214
:10141000EF92FF920F931F933C01162FF42ED22EC2
:10142000B02E9E2C5C2C8A2C0E940E0887E791E03F
:10143000D3018D939C9300D000D0EDB7FEB73196C9
:10144000ADB7BEB711961C92118212821382C301EE
:1014500061E0412F2F2D0D2DEB2CC92CA52C0E94C6
:1014600094090F900F900F900F901F910F91FF9084
:10147000EF90DF90CF90BF90AF909F908F907F9034
:101480006F905F9008955F926F927F928F929F927C
:10149000AF92BF92CF92DF92EF92FF920F931F9382
:1014A0003C01162FF42ED22EB02E9E2C5C2C8A2CB2
:1014B0000E940E0887E791E0D3018D939C9300D0A2
:1014C00000D0EDB7FEB73196ADB7BEB711961C92FE
:1014D000118212821382C30161E0412F2F2D0D2D45
:1014E000EB2CC92CA52C0E9494090F900F900F9003
:1014F0000F901F910F91FF90EF90DF90CF90BF90D2
:10150000AF909F908F907F906F905F900895909391
:101510002505809324050895FC0182810895FC012E
:101520002581368147815085B901CA010895FC01A2
:10153000838190E008951F920F920FB60F921124AD
:101540000F931F932F933F934F935F936F937F93CB
:101550008F939F93AF93BF93EF93FF9300912405D5
:101560001091250581E0F801828384830E94C62AB8
:10157000F8016583768387839087FF91EF91BF9110
:10158000AF919F918F917F916F915F914F913F911B
:101590002F911F910F910F900FBE0F901F901895D4
:1015A000CF93DF93EC018C81813061F50E94C62AD4
:1015B0002D813E814F815885621B730B840B950BE7
:1015C0006C54744080409040E8F00E94C62A24E6A3
:1015D00030E040E050E00E94E03089859A85281B89
:1015E000390B8B859C852817390760F00E94C62A25
:1015F00024E630E040E050E00E94E0303A8729875E
:1016000081E001C080E0DF91CF9108951F93CF93D7
:10161000DF93EC018A81882319F180EA94E06BE181
:1016200070E042E050E021E030E00E94020780EAF2
:1016300094E00E94DE04182F80EA94E06BE170E0F1
:1016400043E050E021E030E00E94020780EA94E0AD
:101650000E94DE041A82113011F490E003C003C02E
:101660008FEF9FEF282F822FDF91CF911F91089549
:10167000CF93DF93EC010E94060B20E030E003C023
:101680002F5F3F4F86958823D9F72B83293031056B
:1016900019F02115310509F41C82C901DF91CF91A0
:1016A00008951F93CF93DF93EC01142F688362504A
:1016B00069831A821C821D821E821F82188681E025
:1016C00090E09C878B8780EA94E00E94C20480EAC5
:1016D00094E060E00E94D60480EA94E06BE170E060
:1016E00049E350E02FEF30E00E94420764E670E0EB
:1016F00080E090E00E94D42A80EA94E00E94C20434
:1017000080EA94E060E00E94D604113081F464E63F
:1017100070E080E090E00E94D42A80EA94E06BE1DF
:1017200070E047E350E020E030E00E94420788810B
:1017300060E00E94F72B89816BE97AE042E050E09B
:101740000E94E229DF91CF911F910895FC019093AF
:10175000270580932605128213821482158280E069
:1017600090E0A0E8BFE386839783A087B1870895C0
:10177000FC01718360830895EF92FF920F931F9392
:10178000CF93DF93FC01DB01128683B7816083BFB7
:1017900079E0C0E1D0E03AC07150672FCE01072E4A
:1017A00002C0880F991F0A94E2F77C010027F7FC1A
:1017B0000095102F2E153F054007510710F4772391
:1017C00059F763FD02C090E001C090E2872F877057
:1017D000982B9064F894A89584B7877F84BF8091F4
:1017E0006000886180936000909360007894128616
:1017F00082858823E9F48C918823D1F485B78066AB
:1018000085BF85B78F7D85BF8895F2CF21153105BE
:101810004105510509F0C1CF83B78E7F83BF80E0BA
:1018200090E0DF91CF911F910F91FF90EF9008957D
:101830002E193F09400B510B4AF7EECF1F920F9222
:101840000FB60F9211248F93EF93FF93F894A895FE
:1018500084B7877F84BFE0E6F0E080818861808381
:1018600010827894E0912605F091270581E0828727
:10187000FF91EF918F910F900FBE0F901F901895D1
:101880004F925F926F927F928F929F92AF92BF9290
:10189000CF92DF92EF92FF920F931F932C018B0157
:1018A00059016A0183B7817F83BF0E94C62A3B0129
:1018B0004C01C201B801A60195010E94BC0B0E9417
:1018C000C62A7B018C01C601B5010E949D2F5B01D8
:1018D0006C01E618F70808091909C801B7010E9448
:1018E0009F2F9B01AC01C601B5010E94092FF20197
:1018F00066837783808791871F910F91FF90EF9088
:10190000DF90CF90BF90AF909F908F907F906F901F
:101910005F904F900895AF92BF92CF92DF92EF9277
:10192000FF920F931F93CF93DF93EC015B0169014B
:101930007A01C80120917A002F7720937A0064E61B
:1019400070E00E94CD30019739F4CE01B501A701B6
:1019500096010E94400C2BC083B7817F9881892B10
:1019600083BFC701B6010E949D2F2E813F8148850C
:1019700059850E942B300E94712F9B01AC01CE0132
:10198000B5010E94BC0B2A813B814C815D81C20E56
:10199000D31EE41EF51EAA2797FDA095BA2FC81ADC
:1019A000D90AEA0AFB0ACA82DB82EC82FD828091B4
:1019B0007A00806880937A00DF91CF911F910F9118
:1019C000FF90EF90DF90CF90BF90AF9008950F936E
:1019D0001F93DC018B01FB011082ED91FC910190C2
:1019E000F081E02D0995B8014AE050E00E94100214
:1019F0001F910F910895CB0168E670E00E94C60127
:101A000008951F93CF93DF93EC0161E041E00E94C2
:101A1000351FCE0162E070E00E94C418813091054C
:101A200069F08130910520F0029771F010E01FC03D
:101A3000E881F9810488F589E02D0BC0E881F981FE
:101A40000688F789E02D05C0E881F981008CF18DC9
:101A5000E02DCE010995182F813049F40E94C62A45
:101A60006FA778AB89AB9AAB1B8F1C8F1D8F812F13
:101A7000DF91CF911F9108950F931F938C01FC016B
:101A800084890E94752B9595879595958795F80182
:101A9000818B90E01F910F9108950F931F938C01FC
:101AA00083E891E0F8019183808383E08483178643
:101AB000168EC80162E070E040E050E00E94CC1851
:101AC000C80160E070E040E050E00E94CC18C8011E
:101AD00061E070E040E050E00E94CC18F801108A0C
:101AE00080E1848B84EF91E0A0E0B0E083A394A335
:101AF000A5A3B6A386E990E0A0E0B0E0878F90A30D
:101B0000A1A3B2A3178A81E0808F118E1F910F913C
:101B10000895FC01878D882391F080A190E0880FC3
:101B2000991FE80FF91FE15BFF4FA081B181ED9193
:101B3000FC9111970280F381E02DCD010995089564
:101B4000FC0180A190E008950B960E94D92708958A
:101B5000FC01DC01A55CBE4F8C931196FC93DC016B
:101B6000A355BE4F8C931196FC939C01215B3F4F74
:101B7000E55AFF4FD901ED93FC93EB55F040DF019F
:101B8000AF5ABF4FE553FF4FED93FC93EB5CF04032
:101B9000DF01AD5ABF4FED56FF4FED93FC93E35974
:101BA000F040DF01AB5ABF4FED5FFE4FED93FC936A
:101BB000E350F140DF01A95ABF4FE35CFE4FED93C4
:101BC000FC93ED53F140CF018B589E4FE75AFF4FE6
:101BD00091838083CF018E549040B9010E94502898
:101BE00008950F931F938C010E94A60BC8010B96BA
:101BF0000E94B929C801855A9F4F0E940A14C80142
:101C00008D569F4F0E94EE14C80185539F4F0E942E
:101C10008815C8018D5F9E4F0E946018C801835CC3
:101C20009E4F0E944D0DC8018B589E4F0E94101070
:101C30001F910F91089580E090E00895FC01878D39
:101C400090A14AE050E00E9431020895FC01808991
:101C5000E82FF0E0EE0FFF1FE459FF4F259134917C
:101C6000CB01B9010E94C6010895CB0166E770E07F
:101C70000E94C6010895AF92BF92CF92DF92EF9279
:101C8000FF920F931F93DF93CF9300D000D00F925A
:101C9000CDB7DEB77C018B015A016901F9011082D1
:101CA0000E94C418885E934088F4C60160E071E029
:101CB0000E94CD01C5018E010F5F1F4FB8014AE0A0
:101CC00050E00E943102C601B80122C0C701B8012C
:101CD0000E94C41881569A4E38F5C701B8010E9477
:101CE000C418A0E0B0E0BC01CD010E949D2F20E00F
:101CF00030E04AE754E40E94092F43E021E07E01EE
:101D00000894E11CF11C87010E94A501C601B701DE
:101D10000E94CD01C60163E071E00E94CD01C601C1
:101D200060E070E00E94CD010F900F900F900F9037
:101D30000F90CF91DF911F910F91FF90EF90DF9067
:101D4000CF90BF90AF900895CF92DF92EF92FF9225
:101D50000F931F93CF93DF93EC01D82ECD2E63E02A
:101D600070E00E94C4188C01CE0164E070E00E9413
:101D7000C41822E4E22EF12CEC0EFD1E8017910710
:101D800020F0CE0164E070E003C0CE0163E070E0BB
:101D90000E94C418F701918380838D2D9C2D60E0F3
:101DA00070E00E94C418FE01EE5BFF4F208131817C
:101DB00048EE53E0BC01649FC001659F900D749F85
:101DC000900D112482179307A0F4285E334014F479
:101DD00051834083CE5BDF4F8881998168EE73E049
:101DE0000E94CD30AB018D2D9C2D60E070E00E94F3
:101DF000CC188D2D9C2D60E070E00E94C4188C01E1
:101E00008D2D9C2D62E070E00E94C4188017910710
:101E100068F48D2D9C2D60E070E00E94C418AC0128
:101E20008D2D9C2D62E070E00E94CC18DF91CF9147
:101E30001F910F91FF90EF90DF90CF9008956F92D8
:101E40007F928F929F92AF92BF92CF92DF92EF924A
:101E5000FF920F931F93CF93DF93EC017B01490116
:101E60003801442321F4CC24CA94DC2C03C031E093
:101E7000C32ED12CBC2EAD2ECE01B7010E94C418AA
:101E8000892B31F4CE01B70141E250E00E94CC1819
:101E9000181419040CF0A6C004EF11E0C09E400114
:101EA000C19E900CD09E900C11248B2D9A2DB701C1
:101EB0000E94C418885E934008F04BC000E010E018
:101EC0008B2D9A2DB7010E94C4189C01F801E15492
:101ED000FE4F608188EE93E070E00E94B9302617D3
:101EE000370749F4C05CDF4F0C0D1D1D19830883B3
:101EF000C054D04005C00F5F1F4F0930110501F7D6
:101F0000FE01E05CFF4F8081918197FF02C011824A
:101F10001082C05CDF4F28813981C054D040F90164
:101F2000E154FE4F608188EE93E070E00E94B9308A
:101F30007FAF6EAF293031050CF44DC08B2D9A2D3B
:101F4000B7010E94C4189401280F391F3FAF2EAF6C
:101F500042C08B2D9A2DB7010E94C4188051974220
:101F6000C0F48B2D9A2DB7010E94C4189401280F3C
:101F7000391F3FAF2EAF285E334068F5C05CDF4F9E
:101F800088E090E099838883C054D0401FAF0EAFA3
:101F900022C08B2D9A2DB7010E94C41881569A4EEB
:101FA000D0F48B2D9A2DB7010E94C41828EE33E08F
:101FB000A901C49E9001C59E300DD49E300D112400
:101FC000280F391F3FAF2EAF21563A4E20F080E642
:101FD0009AEE9FAF8EAF4EAD5FAD8B2D9A2DB701B0
:101FE0000E94CC18C05CDF4FE881F981C054D0401A
:101FF000E154FE4F4081CE01B70150E093010E94B1
:102000003B0EDF91CF911F910F91FF90EF90DF90EA
:10201000CF90BF90AF909F908F907F906F900895DA
:102020000F931F938C0183EA91E0F80191838083E1
:1020300085E084831786168EC80160E070E040E07A
:1020400050E00E94CC18C80161E070E040E050E030
:102050000E94CC18C80162E070E040E050E00E94AD
:10206000CC18C80163E070E041E250E00E94CC1857
:10207000C80164E070E048EE53E00E94CC18F8011B
:1020800017A610AA11AA12AA108A84EF91E0A0E064
:10209000B0E083A394A3A5A3B6A386E990E0A0E053
:1020A000B0E0878F90A3A1A3B2A3178A81E0808FAD
:1020B000118E81E290E093AF82AF88EE93E095AF0E
:1020C00084AF0E5B1F4FF8019183808312921292AE
:1020D0008F0100541040F80117AE16AE138A128A11
:1020E0001F910F9108950F931F93CF93DF93EC01EE
:1020F0008B019A018889823009F444C0833030F41E
:10210000882319F1813009F066C007C0833009F4D3
:1021100055C0843009F05FC055C0CE0161E070E069
:1021200040EF52ED0E94D418CE0161E070E00E94B1
:10213000C418892B31F4F8011082C80167E071E0FE
:102140001AC0CE0161E070E031C0CE0160E070E005
:1021500040EF52ED0E94D418CE010E94A40ECE0191
:1021600060E070E00E94C418892B41F4F8011082ED
:10217000C8016BE071E00E94CD012DC0CE0160E08E
:1021800070E014C0CE0162E070E040EF52ED0E94BA
:10219000D418CE010E94A40ECE0162E070E00E942D
:1021A000C418892B19F3CE0162E070E00E94C418B4
:1021B000BC01CE01A8010E94CF1C0DC0CE0163E07E
:1021C00070E003C0CE0164E070E041E00E941F0FA8
:1021D000CE010E94A40EDF91CF911F910F9108951F
:1021E0000F931F93CF93DF93EC018B019A018889A2
:1021F000823009F444C0833030F4882319F18130EF
:1022000009F066C007C0833009F455C0843009F076
:102210005FC055C0CE0161E070E040EF52ED0E941A
:10222000EC18CE0161E070E00E94C418892B31F4F3
:10223000F8011082C80167E071E01AC0CE0161E0C8
:1022400070E031C0CE0160E070E040EF52ED0E94DE
:10225000EC18CE010E94A40ECE0160E070E00E9456
:10226000C418892B41F4F8011082C8016BE071E0B9
:102270000E94CD012DC0CE0160E070E014C0CE01FF
:1022800062E070E040EF52ED0E94EC18CE010E9437
:10229000A40ECE0162E070E00E94C418892B19F3ED
:1022A000CE0162E070E00E94C418BC01CE01A8011A
:1022B0000E94CF1C0DC0CE0163E070E003C0CE01D0
:1022C00064E070E040E00E941F0FCE010E94A40E67
:1022D000DF91CF911F910F91089580E00E948A2C89
:1022E000019731F481E00E948A2C20E0019709F0E7
:1022F00021E0822F0895CF92DF92EF92FF920F9309
:102300001F93CF93DF93EC018A899B89892B91F4EA
:102310000E94C62A6BAB7CAB8DAB9EABCC5BDF4F18
:1023200028EE33E040E050E00E94E030398328831B
:10233000C454D0400E94C62A7B018C0146E4C42EBE
:10234000D12CCC0EDD1E28EE33E040E050E00E94A0
:10235000E030CC5BDF4F88819981C454D040281B8A
:10236000390BF601318320838BA99CA9ADA9BEA9A5
:10237000E81AF90A0A0B1B0BCE0160E070E00E941C
:10238000C418A0E0B0E0BC01CD0128EE33E040E08D
:1023900050E00E948E309B01AC012E193F09400B8A
:1023A000510BB901CA01DF91CF911F910F91FF909D
:1023B000EF90DF90CF900895CF93DF93EC018A895F
:1023C0009B89892B11F080E018C08FA598A9A9A935
:1023D000BAA90097A105B10531F40E94C62A6FA7DA
:1023E00078AB89AB9AAB81E08B8F8C8F8D8FCE01D0
:1023F00061E040E00E94351F81E0DF91CF910895B8
:102400004F925F926F927F928F929F92AF92BF9204
:10241000CF92DF92EF92FF920F931F93CF93DF93B0
:10242000EC01582E4D2E60E070E00E94C418892BFC
:1024300049F4CE0160E070E041E050E021E030E09E
:102440000E94D41856E4852E912C8C0E9D1EF4010A
:1024500000811181852D942D62E070E00E94C418E6
:102460000817190760F08D89882349F48E8988231D
:1024700031F4F4011182108281E08E8F72C0CE019E
:102480000E947B113B014C01852D942D62E070E090
:102490000E94C4185C01852D942D60E070E00E94BC
:1024A000C4186C01852D942D64E070E00E94C4185E
:1024B0007C01852D942D63E070E00E94C4188C018E
:1024C000852D942D63E070E00E94C4189C01C50125
:1024D000B6010E94B930C701801B910B0E94B93030
:1024E0008A899B89AC01649FC001659F900D749F90
:1024F000900D1124820F931FA0E0B0E08F8F98A35E
:10250000A9A3BAA3CE010E94DC118130D1F1852D9F
:10251000942D60E040E00E94351FCE010E946D11B5
:102520008130C1F48D898823A9F48E89882391F4A0
:1025300088AD99AD64E070E00E94B80BBE01625EA8
:102540007F4F0A891B8988AD99ADA40193010E9430
:102550008B0C09C097FC07C06114710481049104BD
:1025600011F080E00EC00E94C62A6FA778AB89AB3D
:102570009AAB6BAB7CAB8DAB9EAB81E08B8F8C8FC2
:102580008D8FDF91CF911F910F91FF90EF90DF9092
:10259000CF90BF90AF909F908F907F906F905F9003
:1025A0004F9008950F931F93DC018B01FB01108264
:1025B000ED91FC910190F081E02D0995B8014AE080
:1025C00050E00E9410021F910F9108950F931F93E6
:1025D000CF93DF93EC01E881F981008CF18DE02D40
:1025E0000995813011F020E00CC0098910E0CE017E
:1025F00062E070E00E94C41820E08017910708F0A4
:1026000021E0822FDF91CF911F910F9108950F93B9
:102610001F93CF93DF93EC01E881F981008CF18D5A
:10262000E02D0995813011F020E00CC0098910E0FF
:10263000CE0162E070E00E94C41820E0801791078C
:1026400008F421E0822FDF91CF911F910F9108951F
:102650000F931F938B0160E070E00E94C418FC018F
:10266000EE0FFF1FEC55FF4F65917491C8010E945A
:10267000C6011F910F910895FC018089E82FF0E0B9
:10268000EE0FFF1FE655FF4F25913491CB01B901A5
:102690000E94C6010895CB016EEA70E00E94C60157
:1026A00008950F931F93CF93DF93EC018B019A0151
:1026B0008889882319F0813089F510C0CE0160E047
:1026C00070E042E050E00E94D418E881F981028C69
:1026D000F38DE02DCE01B801099520C0CE0161E057
:1026E00070E04FE057E20E94D418CE0161E070E044
:1026F0000E94C418892B41F4F8011082C8016DE0D2
:1027000071E00E94CD010AC0CE0161E070E00E943C
:10271000C418BC01CE01A8010E940C1CDF91CF910E
:102720001F910F9108950F931F93CF93DF93EC01A7
:102730008B019A018889882319F0813089F510C0AE
:10274000CE0160E070E042E050E00E94EC18E881C9
:10275000F981028CF38DE02DCE01B801099520C0DE
:10276000CE0161E070E04FE057E20E94EC18CE012C
:1027700061E070E00E94C418892B41F4F8011082D6
:10278000C8016DE071E00E94CD010AC0CE0161E098
:1027900070E00E94C418BC01CE01A8010E940C1C6C
:1027A000DF91CF911F910F9108950F931F93CF93B6
:1027B000DF93EC0162E070E00E94C4188C018C8908
:1027C0000E94752B9595879595958795898B20E027
:1027D00090E0081719070CF421E08F85281711F4F1
:1027E00080E002C02F8781E0DF91CF911F910F9190
:1027F00008950F931F938C01FC0184890E94752B0F
:102800009595879595958795F801818B90E01F9117
:102810000F9108950F931F938C018CEC91E0F801B8
:102820009183808382E084831786168EC80160E0DE
:1028300070E040E050E00E94CC18C80161E070E018
:1028400040E050E00E94CC18C80162E070E04AEF1E
:1028500050E00E94CC18F801108A84E1848B84EF48
:1028600091E0A0E0B0E083A394A3A5A3B6A386E97A
:1028700090E0A0E0B0E0878F90A3A1A3B2A3178A55
:1028800081E0808F118E1F910F9108951F93CF9338
:10289000DF93EC0162E070E04AEF50E00E94CC1858
:1028A000CE0161E041E00E94351FCE0160E070E0A2
:1028B0000E94C4188130910569F08130910520F0A3
:1028C000029771F010E01FC0E881F9810488F58952
:1028D000E02D0BC0E881F9810688F789E02D05C05D
:1028E000E881F981008CF18DE02DCE010995182F3A
:1028F000813049F40E94C62A6FA778AB89AB9AABA6
:102900001B8F1C8F1D8F812FDF91CF911F910895F9
:102910000F931F93DC018B01FB011082ED91FC9161
:102920000190F081E02D0995B8014AE050E00E9445
:1029300010021F910F910895CB0169ED70E00E9484
:10294000C60108951F93CF93DF93EC0161E041E04E
:102950000E94351FCE0162E070E00E94C4188130F1
:10296000910569F08130910520F0029771F010E037
:102970001FC0E881F9810488F589E02D0BC0E8814A
:10298000F9810688F789E02D05C0E881F981008C7E
:10299000F18DE02DCE010995182F813049F40E9468
:1029A000C62A6FA778AB89AB9AAB1B8F1C8F1D8F84
:1029B000812FDF91CF911F9108950F931F938C0169
:1029C000FC0184890E94752B95958795959587952F
:1029D000F801818B90E01F910F9108950F931F9341
:1029E0008C018CEE91E0F8019183808383E08483F5
:1029F0001786168EC80162E070E040E050E00E9449
:102A0000CC18C80160E070E040E050E00E94CC18B3
:102A1000C80161E070E040E050E00E94CC18F8018D
:102A2000108A8EE0848B84EF91E0A0E0B0E083A375
:102A300094A3A5A3B6A386E990E0A0E0B0E0878FB9
:102A400090A3A1A3B2A3178A81E0808F118E1F915A
:102A50000F9108950F931F93DC018B01FB011082EE
:102A6000ED91FC910190F081E02D0995B8014AE0CB
:102A700050E00E9410021F910F910895CB016FED5D
:102A800070E00E94C6010895FC018089E82FF0E003
:102A9000EE0FFF1FEB51FF4F25913491CB01B90190
:102AA0000E94C60108951F93CF93DF93EC0161E06C
:102AB00041E00E94351FE881F9810488F589E02D05
:102AC000CE010995182F813069F40E94C62A6FA79C
:102AD00078AB89AB9AAB6BAB7CAB8DAB9EAB1B8FF2
:102AE0001C8F1D8F812FDF91CF911F9108950F9320
:102AF0001F938C01FC0184890E94752B9595879505
:102B000095958795F801818B90E01F910F9108951D
:102B10000F931F938C018CE092E0F80191838083E6
:102B200082E084831786168EC80162E070E042E07E
:102B300050E00E94CC18C80160E070E040E050E036
:102B40000E94CC18C80161E070E040E050E00E94B3
:102B5000CC1821E0F801208B85E1848B84EF91E093
:102B6000A0E0B0E083A394A3A5A3B6A386E990E078
:102B7000A0E0B0E0878F90A3A1A3B2A3178A208F13
:102B8000118E1F910F910895FC018089E82FF0E0CC
:102B9000EE0FFF1FE850FF4F25913491CB01B90193
:102BA0000E94C6010895CB0160E071E00E94C60159
:102BB0000895EF92FF920F931F93DF93CF9300D06E
:102BC000CDB7DEB78C017B019A01FC018089813091
:102BD00041F08130F0F08230E9F1833009F07BC0C0
:102BE0005CC0C80161E070E040E65AEE0E94D41873
:102BF000C80161E070E00E94C418892B31F4F7012C
:102C00001082C70161E171E017C0C80161E070E0A6
:102C100019C0C80160E070E040E65AEE0E94D41886
:102C2000C80160E070E00E94C418892B41F4F701EC
:102C30001082C70165E171E00E94CD014CC0C8015E
:102C400060E070E00E94C418BC01C801A7010E94A6
:102C5000701C41C0C80162E070E040E553EC0E9486
:102C6000D418C80162E070E00E94C418892B51F4A6
:102C7000F701108283EF89831A82C701BE016F5F5B
:102C80007F4FDACFC80162E070E00E94C418B7013C
:102C90004AE050E00E9431021EC0C80163E070E0CB
:102CA00048E552E00E94D418C80163E070E00E9439
:102CB000C418892B31F4F7011082C70167E171E074
:102CC000BBCFC80163E070E00E94C418BC01C8011A
:102CD000A7010E94CF1C0F900F90CF91DF911F9101
:102CE0000F91FF90EF900895EF92FF920F931F9333
:102CF000DF93CF9300D0CDB7DEB78C017B019A0173
:102D0000FC018089813041F08130F0F08230E9F1BE
:102D1000833009F07BC05CC0C80161E070E040E630
:102D20005AEE0E94EC18C80161E070E00E94C418DD
:102D3000892B31F4F7011082C70161E171E017C0FE
:102D4000C80161E070E019C0C80160E070E040E6D1
:102D50005AEE0E94EC18C80160E070E00E94C418AE
:102D6000892B41F4F7011082C70165E171E00E94EF
:102D7000CD014CC0C80160E070E00E94C418BC01E5
:102D8000C801A7010E94701C41C0C80162E070E048
:102D900040E553EC0E94EC18C80162E070E00E942C
:102DA000C418892B51F4F701108283EF89831A82AA
:102DB000C701BE016F5F7F4FDACFC80162E070E0EC
:102DC0000E94C418B7014AE050E00E9431021EC0C0
:102DD000C80163E070E048E552E00E94EC18C801C9
:102DE00063E070E00E94C418892B31F4F70110826F
:102DF000C70167E171E0BBCFC80163E070E00E94EA
:102E0000C418BC01C801A7010E94CF1C0F900F90ED
:102E1000CF91DF911F910F91FF90EF90089580E087
:102E20000E948A2C019731F481E00E948A2C20E0D4
:102E3000019709F021E0822F08956F927F928F927F
:102E40009F92AF92BF92CF92DF92EF92FF920F9339
:102E50001F93CF93DF93EC018A899B89892B31F4EF
:102E60000E94C62A6BAB7CAB8DAB9EAB0E94C62A80
:102E70005B016C018BA99CA9ADA9BEA9A81AB90ACE
:102E8000CA0ADB0ACE0160E070E00E94C4187C012F
:102E900000E010E0CE0163E070E00E94C4183C0145
:102EA00088249924C801B70124E630E040E050E0CE
:102EB0000E948E307B018C01EA18FB080C091D0969
:102EC000C401B30128EE33E040E050E00E948E30B0
:102ED000E60EF71E081F191FB701C801DF91CF9139
:102EE0001F910F91FF90EF90DF90CF90BF90AF9028
:102EF0009F908F907F906F9008950E941D1728EEED
:102F000033E040E050E00E94E030C9010895EF92C4
:102F1000FF920F931F938C017B010E947D17BC01D0
:102F2000C801A7010E94CF1C1F910F91FF90EF9045
:102F30000895CF93DF93EC018A899B89892B11F047
:102F400080E018C08FA598A9A9A9BAA90097A105E2
:102F5000B10531F40E94C62A6FA778AB89AB9AAB52
:102F600081E08B8F8C8F8D8FCE0161E040E00E94DD
:102F7000351F81E0DF91CF910895AF92BF92CF923C
:102F8000DF92EF92FF920F931F93CF93DF93EC01A9
:102F9000B82EAD2E60E070E00E94C418892B49F471
:102FA000CE0160E070E041E050E021E030E00E94BE
:102FB000D4180A891B898B2D9A2D62E070E00E943B
:102FC000C4180817190788F08B2D9A2D62E070E05D
:102FD0000E94C418892B49F08D89882331F48E8989
:102FE000882319F481E08E8F50C0CE010E941D17F6
:102FF0006B017C018B2D9A2D63E070E00E94C41858
:10300000892BA1F08B2D9A2D63E070E00E94C418EB
:10301000A0E0B0E0BC01CD0128EE33E040E050E09C
:103020000E948E306F8F78A389A39AA3CE010E944D
:1030300099178130D1F18B2D9A2D60E040E00E94EC
:10304000351FCE010E940F178130C1F48D8988236E
:10305000A9F48E89882391F488AD99AD64E070E07D
:103060000E94B80BBE01625E7F4F0A891B8988AD42
:1030700099ADA70196010E948B0C09C0F7FC07C00F
:10308000C114D104E104F10411F080E00EC00E94EB
:10309000C62A6FA778AB89AB9AAB6BAB7CAB8DAB19
:1030A0009EAB81E08B8F8C8F8D8FDF91CF911F91A5
:1030B0000F91FF90EF90DF90CF90BF90AF90089569
:1030C0000F931F938C018CE292E0F801918380832F
:1030D00084E084831786168EC80160E070E040E0CB
:1030E00050E00E94CC18C80161E070E040E050E080
:1030F0000E94CC18C80162E070E040E050E00E94FD
:10310000CC18C80163E070E040E050E00E94CC18A9
:10311000F80117A610AA11AA12AA108A84EF91E04A
:10312000A0E0B0E083A394A3A5A3B6A386E990E0B2
:10313000A0E0B0E0878F90A3A1A3B2A3178A81E09B
:10314000808F118E1F910F9108959C01F999FECFE8
:1031500032BD21BDF89A80B508959C01F999FECF42
:103160001FBA32BD21BD60BD0FB6F894FA9AF99A24
:103170000FBE0895FC01808964818F5F90E070E04C
:103180000E94B930808B0895FB01EE0FFF1FE80FFE
:10319000F91F858196810895FB01EE0FFF1FE80F4F
:1031A000F91F568345830895DC01FB01EE0FFF1FD5
:1031B000EA0FFB1F85819681280F391F421753079D
:1031C00010F420E030E0660F771FA60FB71F1696A9
:1031D0003C932E9315970895FB01EE0FFF1FE80F08
:1031E000F91F85819681821B930B4817590708F4B4
:1031F000CA01968385830895CF93DF93EC01E8811C
:10320000F981008CF18DE02D0995813011F040E0BD
:1032100009C040E0898990E02D813E812817390757
:1032200008F441E0842FDF91CF910895CF93DF938D
:10323000EC01E881F981008CF18DE02D0995813058
:1032400011F040E009C040E0898990E02D813E8185
:103250002817390708F041E0842FDF91CF910895B6
:10326000FC01138A128A43AB54AB65AB76AB17A64D
:1032700010AA11AA12AA168E0895FC01868D08952F
:103280009C01CB01B9012DEA38E10E94F4010895B7
:10329000EF92FF920F931F93DF93CF9300D0CDB7A0
:1032A000DEB7FC010281138174E0000F111F7A95D3
:1032B000E1F71A8219827E010894E11CF11CC70112
:1032C000B80141E050E00E9440191A8219820F5F54
:1032D0001F4FC701B80142E050E00E9440191A8216
:1032E00019820E5F1F4FC701B80142E050E00E94F3
:1032F00040191A8219820E5F1F4FC701B80142E0C0
:1033000050E00E9440191A8219820E5F1F4FC701B8
:10331000B80142E050E00E9440191A8219820E5F03
:103320001F4FC701B80142E050E00E9440191A82C5
:1033300019820E5F1F4FC701B80141E050E00E94A3
:10334000401981E090E09A8389830F5F1F4FC70186
:10335000B80141E050E00E9440191A8219820F5FC3
:103360001F4FC701B80141E050E00E9440198EE1B3
:1033700090E09A8389830F5F1F4FC701B80141E036
:1033800050E00E9440190F900F90CF91DF911F9154
:103390000F91FF90EF900895CF92DF92EF92FF92FE
:1033A0000F931F93DF93CF930F92CDB7DEB77C01BE
:1033B000FC0102811381A4E0000F111FAA95E1F71F
:1033C00087898983055F1F4F6E010894C11CD11C3A
:1033D000C601B80141E050E00E944019F701808D1C
:1033E00089830F5F1F4FC601B80141E050E00E9482
:1033F0004019F701818D89830F5F1F4FC601B80106
:1034000041E050E00E944019F701828D89830F5FEF
:103410001F4FC601B80141E050E00E9440190F90D3
:10342000CF91DF911F910F91FF90EF90DF90CF90A0
:103430000895CF92DF92EF92FF920F931F93DF9345
:10344000CF9300D0CDB7DEB77C01FC0102811381A0
:10345000B4E0000F111FBA95E1F7808989836E01EE
:103460000894C11CD11CC601B80141E050E00E9483
:103470004019F701858196819A8389830F5F1F4FD9
:10348000C601B80142E050E00E944019F70187816F
:1034900090859A8389830E5F1F4FC601B80142E071
:1034A00050E00E944019F701818592859A838983B3
:1034B0000E5F1F4FC601B80142E050E00E94401964
:1034C000F701838594859A8389830E5F1F4FC60118
:1034D000B80142E050E00E944019F70185859685C9
:1034E0009A8389830E5F1F4FC601B80142E050E006
:1034F0000E9440190F900F90CF91DF911F910F9173
:10350000FF90EF90DF90CF9008950F931F93CF938C
:10351000DF93EC010A811B8184E0000F111F8A9563
:10352000E1F7B801655F7F4FCE01479641E050E07B
:1035300025EA38E10E94D8018F898F3F09F41F8A5C
:10354000B801645F7F4FCE01489641E050E025EA24
:1035500038E10E94D801888D8F3F11F481E0888F77
:10356000B801635F7F4FCE01499641E050E025EA04
:1035700038E10E94D801898D8F3F09F4198E025FCE
:103580001F4FCE014A96B80141E050E025EA38E1EC
:103590000E94D8018A8D8F3F11F48EE18A8FDF91CE
:1035A000CF911F910F9108950F931F93CF93DF93A6
:1035B0008C01FC01C281D38194E0CC0FDD1F9A9570
:1035C000E1F7C8014096BE0141E050E025EA38E14C
:1035D0000E94D801F8018089863008F0108A21966F
:1035E000C8010596BE0142E050E025EA38E10E949C
:1035F000D8012296C8010796BE0142E050E025EAB4
:1036000038E10E94D8012296C8010996BE0142E025
:1036100050E025EA38E10E94D8012296C8010B96B5
:10362000BE0142E050E025EA38E10E94D80122962E
:10363000C8010D96BE0142E050E025EA38E10E9443
:10364000D801DF91CF911F910F9108959B01DC016B
:103650001996ED91FC911A97EE0FFF1FEF5CFE4F4C
:1036600065917491C9010E94C6010895FC01808989
:10367000E82FF0E0EE0FFF1FE55DFE4F259134913E
:10368000CB01B9010E94C6010895EF92FF920F93FA
:103690001F93DF93CF93CDB7DEB7CA57D0400FB695
:1036A000F894DEBF0FBECDBF67E3E62EF12CE80E27
:1036B000F91EC7014FE750E86CED71E620E230E0FB
:1036C0000E94E920DE011796E4EBF2E08EE0019023
:1036D0000D928150E1F78E01095F1F4FC701B801BC
:1036E00047E050E026E230E00E9465206FE370E0A2
:1036F00080E090E00E94D42AC701B80147E050E082
:1037000026E230E00E9465206FE370E080E090E008
:103710000E94D42ADE015596E4E9F2E080E20190AD
:103720000D928150E1F7C701BE016B5E7F4F40E112
:1037300050E026E230E00E946520DE01D596EEE4FE
:10374000F2E086E401900D928150E1F7C701BE01DD
:103750006B5C7F4F40E150E020E230E00E9465204A
:10376000DE011196E8E4F2E086E001900D928150CE
:10377000E1F7C701BE016F5F7F4F44E050E021E2F7
:1037800030E00E94652000E010E0C7014FE85BE4F4
:103790006BE070E024E130E00E949A206AE070E083
:1037A00080E090E00E94D42A0F5F1F4F0330110584
:1037B00061F7C7014EE751E86CE073ED20E230E0BD
:1037C0000E94E920C658DF4F0FB6F894DEBF0FBE47
:1037D000CDBFCF91DF911F910F91FF90EF90089592
:1037E000CF93DF93EC01898D813091F48D8D813001
:1037F00081F41D8E2F9ACE010E94451B2F98888D33
:10380000882339F48A899B8901969B8B8A8B01C016
:103810001D8EDF91CF910895CF92DF92EF92FF92AC
:103820000F931F93DF93CF9300D000D00F92CDB7AB
:10383000DEB78B016A01FA011082CB0168EE73E0FA
:103840000E94B930CB017E010894E11CF11CB70144
:103850004AE050E00E943102C601B7010E94CD014A
:10386000C60160E271E00E94CD01C80168EE73E01C
:103870000E94B9308C018436910568F4C60162E279
:1038800071E00E94CD010A30110528F4C60162E200
:1038900071E00E94CD01C8018E010F5F1F4FB8017A
:1038A0004AE050E00E943102C601B8010E94CD01F9
:1038B000C60164E271E00E94CD01C60160E070E0E3
:1038C0000E94CD010F900F900F900F900F90CF910D
:1038D000DF911F910F91FF90EF90DF90CF900895AF
:1038E000CF92DF92EF92FF920F931F93DF93CF93CC
:1038F00000D000D00F92CDB7DEB78B016A01FA017C
:103900001082CB0168E572E00E94B930CB017E01E4
:103910000894E11CF11CB7014AE050E00E9431021A
:10392000C601B7010E94CD01C60168E271E00E94A4
:10393000CD01C80168E572E00E94B9308C0184367F
:10394000910568F4C60162E271E00E94CD010A307F
:10395000110528F4C60162E271E00E94CD01C801A0
:103960008E010F5F1F4FB8014AE050E00E94310204
:10397000C601B8010E94CD01C60160E070E00E945E
:10398000CD010F900F900F900F900F90CF91DF917E
:103990001F910F91FF90EF90DF90CF900895CF92FD
:1039A000DF92EF92FF920F931F93DF93CF9300D09C
:1039B00000D00F92CDB7DEB78B016A01FA011082F9
:1039C000CB016CE370E00E94B930CB017E0108941A
:1039D000E11CF11CB7014AE050E00E943102C6012F
:1039E000B7010E94CD01C60168E271E00E94CD01DD
:1039F000C8016CE370E00E94B9308C018A309105F7
:103A000028F4C60162E271E00E94CD01C8018E0176
:103A10000F5F1F4FB8014AE050E00E943102C6011B
:103A2000B8010E94CD01C60160E070E00E94CD01A6
:103A30000F900F900F900F900F90CF91DF911F91EB
:103A40000F91FF90EF90DF90CF900895CF92DF928B
:103A5000EF92FF920F931F93DF93CF9300D000D08C
:103A60000F92CDB7DEB7DC018B017A01FA0110822B
:103A7000ED91FC910190F081E02D09956C01C80158
:103A80008E010F5F1F4FB8014AE050E00E943102E3
:103A9000C701B8010E94CD01C7016AE271E00E942E
:103AA000CD01C601B8014AE050E00E941002C701F2
:103AB000B8010E94CD01C70160E070E00E94CD0115
:103AC0000F900F900F900F900F90CF91DF911F915B
:103AD0000F91FF90EF90DF90CF900895CF93DF93F9
:103AE000DC01EB0150968C9150978130F1F08130E0
:103AF000D8F1823009F04CC019968D919C911A979B
:103B0000840F951F8330910510F080E090E01A96A5
:103B10009C938E931997ED91FC911197028CF38DE4
:103B2000E02DCD01BE01099533C017966D917C91B2
:103B30001897640F751F87E26031780710F060E016
:103B400070E018967C936E9317976115710539F4A0
:103B50001882CE016CE271E00E94CD0119C0CD0146
:103B6000AE010E940C1C14C015966D917C911697A5
:103B7000640F751F6F3F710519F010F060E070E081
:103B800016967C936E931597CD01AE010E94261D6B
:103B9000DF91CF910895CF93DF93DC01EB01509635
:103BA0008C9150978130F1F08130D8F1823009F05A
:103BB0004CC019968D919C911A97841B950B83305C
:103BC000910510F082E090E01A969C938E931997DD
:103BD000ED91FC911197028CF38DE02DCD01BE018A
:103BE000099533C017966D917C911897641B750BDE
:103BF00087E26031780710F06FE077E218967C93E7
:103C00006E9317976115710539F41882CE016CE235
:103C100071E00E94CD0119C0CD01AE010E940C1CC3
:103C200014C015966D917C911697641B750B6F3FB0
:103C3000710519F010F06FEF70E016967C936E939B
:103C40001597CD01AE010E94261DDF91CF910895F9
:103C50000F931F93CF93DF93EC010D811E818C890D
:103C60000E94752B9595879595958795898B20E072
:103C700090E0081719070CF421E08F85281711F43C
:103C800080E002C02F8781E0DF91CF911F910F91DB
:103C90000895CF92DF92EF92FF920F931F93CF93ED
:103CA000DF93EC016A018C8D813041F08B8D813086
:103CB00029F08D8D813011F080E023C0662329F03A
:103CC0000E94C62A2FA538A915C00E94C62A28EE30
:103CD00033E040E050E00E94E03079018A016FA5B6
:103CE00078A989A99AA928EE33E040E050E00E9423
:103CF000E030B701621B730B80E0C616D7060CF4E8
:103D000081E0DF91CF911F910F91FF90EF90DF90B5
:103D1000CF900895CF93DF93EC018E89813011F518
:103D20001C8E613099F00E94C62A2FA138A549A5A2
:103D30005AA5621B730B840B950B2F8D38A149A1DB
:103D40005AA1261737074807590760F48CE061E04D
:103D50000E94362C0E94C62A6FA378A789A79AA72B
:103D60001E8A2F98DF91CF910895CF93DF93EC01B6
:103D70008D89813011F51B8E613099F00E94C62A21
:103D80002BA53CA54DA55EA5621B730B840B950B63
:103D90002BA13CA14DA15EA1261737074807590763
:103DA00060F48DE061E00E94362C0E94C62A6BA769
:103DB0007CA78DA79EA71D8A2F98DF91CF9108958C
:103DC0001F93CF93DF93EC01888D8130B1F41C8D6C
:103DD0001130A1F41C8E8CE060E00E94362C0E9411
:103DE000C62A6FA378A789A79AA72F9A1E8B8A89BC
:103DF0009B8901969B8B8A8B01C01C8EDF91CF9192
:103E00001F9108951F93CF93DF93EC018F8988232F
:103E100029F48F8D98A1A9A1BAA104C084EF91E0E3
:103E2000A0E0B0E08BA39CA3ADA3BEA31B8D11307B
:103E3000C1F41B8E8DE060E00E94362C0E94C62AE1
:103E40006BA77CA78DA79EA72F9A1D8B888D882393
:103E500041F4898D882329F48A899B8901969B8B5B
:103E60008A8BDF91CF911F9108950F931F93CF936A
:103E7000DF93EC01162F042F60E00E94B51ECE01E7
:103E800060E00E948A1E112341F04F815885CE01C7
:103E9000602F0E94491E813009F5CE010E94021F49
:103EA0008F89882361F04BA15CA18F8D98A1481B5D
:103EB000590BCE0161E00E94491E813079F4CE0198
:103EC0000E94E01E888D882319F08E89882331F4A2
:103ED0008D89882319F4CE010E94F01BDF91CF91C8
:103EE0001F910F9108951F920F920FB60F921124F8
:103EF0002F933F934F935F936F937F938F939F93F2
:103F0000AF93BF93EF93FF9383ED8093B2008091C3
:103F100028050E948A2C482F80912B0590912C0512
:103F2000019690932C0580932B058091C5058C34C8
:103F300018F085E080932905809129058330D1F020
:103F4000843020F4823009F059C006C0843071F109
:103F5000853009F053C04CC0442309F04FC0809114
:103F60002B0590912C058436910508F443C01092DE
:103F7000C5051EC0413009F041C08091C505E82F3C
:103F8000F0E020912B0530912C05EE0FFF1FE85D2E
:103F9000FA4F368325838F5F8093C50510922C05D9
:103FA00010922B0584E08093290528C04423B9F49E
:103FB0008091C505E82FF0E020912B0530912C056C
:103FC000EE0FFF1FE85DFA4F368325838F5F8093E6
:103FD000C50510922C0510922B0583E0E4CF80914B
:103FE0002B0590912C058536910540F085E0DBCFBF
:103FF000442321F410922C0510922B0580912A0560
:10400000882329F0442311F42D9A01C02D98FF91A3
:10401000EF91BF91AF919F918F917F916F915F9140
:104020004F913F912F910F900FBE0F901F901895B9
:10403000EF92FF920F931F937B01E0E7F0E0808106
:104040008E7F80838BE061E00E94F72B8BE060E045
:104050000E94362C81E08093B00089E08093B1000B
:104060000027F7FC0095102F60ED77E080E090E0EE
:10407000A80197010E9402312093B3001F910F9174
:10408000FF90EF9008950F931F93CB01E0EBF0E0CA
:1040900020812F7B208362E070E00E94CD30162FBC
:1040A000072F862F972F0E942D2B812F902F0E9454
:1040B0002D2B1F910F910895CB01E0EBF0E02081B3
:1040C000206420830E942D2B0895CF92DF92EF92DF
:1040D000FF920F931F93CF93DF937C01162F072F2F
:1040E0006A01B9010E941820212F302FC901EC016B
:1040F00000E010E00EC06881798100FF04C0C701B4
:104100000E94432003C0C7010E945C200F5F1F4F25
:1041100022960C151D057CF3C70160E070E00E943B
:104120004320DF91CF911F910F91FF90EF90DF908F
:10413000CF900895AF92BF92CF92DF92EF92FF920D
:104140000F931F93CF93DF93EC017A018B015901F9
:1041500068E270E00E941820CE0160E679E00E94DB
:104160005C20CE0168E572E00E94432080E290E08E
:104170008A199B0904C0EE0CFF1C001F111F8A95B1
:10418000D2F7CC24DD2417C017FF04C0CE0160EBAA
:1041900074E003C0CE0168E572E00E945C20CE01AD
:1041A00068E572E00E944320EE0CFF1C001F111F07
:1041B0000894C11CD11CCA14DB0434F3DF91CF91E5
:1041C0001F910F91FF90EF90DF90CF90BF90AF9035
:1041D0000895AF92BF92CF92DF92EF92FF920F932A
:1041E0001F93CF93DF93EC017A018B01590166E2B3
:1041F00070E00E941820CE0168E273E20E945C2009
:10420000CE0164E971E10E944320CC24DD241CC06E
:1042100017FF09C0CE0160E372E00E945C20CE016E
:1042200060E476E008C0CE0160E372E00E945C20AA
:10423000CE0160E372E00E944320EE0CFF1C001FE1
:10424000111F0894C11CD11CCA14DB040CF3CE014D
:1042500060E372E00E945C20CE0160E070E00E94AA
:104260004320DF91CF911F910F91FF90EF90DF904E
:10427000CF90BF90AF9008951F920F920FB60F92FC
:1042800011240F900FBE0F901F9018951F920F9240
:104290000FB60F921124CF92DF92EF92FF920F93FD
:1042A0001F932F933F934F935F936F937F938F93BE
:1042B0009F93AF93BF93EF93FF930E94C62A6B0126
:1042C0007C0180E00E94052A80E06DE177E243E016
:1042D00050E00E94E2290091C6051091C70581E0D7
:1042E000F80183AFC701B60128EE33E040E050E0AB
:1042F0000E94E030F80135AF24AFFF91EF91BF91FC
:10430000AF919F918F917F916F915F914F913F916D
:104310002F911F910F91FF90EF90DF90CF900F9012
:104320000FBE0F901F9018950F931F93CF93DF939D
:10433000EC018B018F89882371F5E9A5FAA597898E
:10434000988F452B09F471C0992309F481E0888F77
:10435000E9A5FAA5878BEBA5FCA5888D878BEDA534
:10436000FEA5888D878BEFA5F8A9888D878BE9A995
:10437000FAA9888D878BEBA9FCA9888D878B55C0FE
:10438000882309F082C0F8011082C80163E371E05C
:104390000E94CD017AC0813021F5E9A5FAA5908D62
:1043A000988F452B09F441C080E0992309F481E0FE
:1043B000888FE9A5FAA5808FEBA5FCA5888D808F55
:1043C000EDA5FEA5888D808FEFA5F8A9888D808F3B
:1043D000E9A9FAA9888D808FEBA9FCA9888D808F27
:1043E00024C0823061F5E9A5FAA5918D988F452BFF
:1043F000E1F080E0992309F481E0888FE9A5FAA52E
:10440000818FEBA5FCA5888D818FEDA5FEA5888DFC
:10441000818FEFA5F8A9888D818FE9A9FAA9888DE8
:10442000818FEBA9FCA9888D818F888D813009F05F
:10443000A7CFF8011082C80160E371E0A9CF8330F3
:1044400021F541155105C1F08A8D9B8D840F951F73
:1044500097FF03C0909581959F4F6FEF70E00E948A
:10446000CD30682F8A8F9B8F8AE0792F0E94972BFF
:10447000E9A5FAA58A8D828FF80110828A8D9B8D1D
:10448000B8014AE050E00E941002DF91CF911F91E5
:104490000F910895FF920F931F93DF93CF93CDB7A2
:1044A000DEB729970FB6F894DEBF0FBECDBF8C01E3
:1044B000F62E9A01DC015596EC91BE016F5F7F4F9D
:1044C000E63080F4F0E0EE0FFF1FE00FF11FA1A532
:1044D000B2A5ED91FC9111970084F185E02DCD01FD
:1044E000099506C044275527421B530B0E9494216F
:1044F000C80160E04F2D0E943108C801BE016F5F06
:104500007F4F0E94BD2E29960FB6F894DEBF0FBED6
:10451000CDBFCF91DF911F910F91FF900895FF9232
:104520000F931F93DF93CF93CDB7DEB729970FB6C5
:10453000F894DEBF0FBECDBF8C01F62EDC01559680
:10454000EC91BE016F5F7F4FE63080F4F0E0EE0F3C
:10455000FF1FE00FF11FA1A5B2A5ED91FC911197EE
:104560000680F781E02DCD01099502C00E949421BB
:10457000C80160E04F2D0E943108C801BE016F5F85
:104580007F4F0E94BD2E29960FB6F894DEBF0FBE56
:10459000CDBFCF91DF911F910F91FF900895FC0146
:1045A0008789E82FF0E0EE0FFF1FE659FE4F2591B7
:1045B0003491CB01B9010E94C6010895FF920F9377
:1045C0001F93DF93CF93CDB7DEB729970FB6F8943B
:1045D000DEBF0FBECDBF8C01F62EDC015596EC91EF
:1045E000BE016F5F7F4FE63080F4F0E0EE0FFF1FFB
:1045F000E80FF91FA1A5B2A5ED91FC9111970484D4
:10460000F585E02DCD01099502C00E94CF22C80199
:1046100060E04F2D0E943108C801BE016F5F7F4FDF
:104620000E94BD2E29960FB6F894DEBF0FBECDBFF7
:10463000CF91DF911F910F91FF900895FF920F93FB
:104640001F93DF93CF93CDB7DEB729970FB6F894BA
:10465000DEBF0FBECDBF8C01F62EDC015596EC916E
:10466000BE016F5F7F4FE63080F4F0E0EE0FFF1F7A
:10467000E80FF91FA1A5B2A5ED91FC911197028455
:10468000F385E02DCD01099505C0CB0162E771E00E
:104690000E94C601C80160E04F2D0E943108C80188
:1046A000BE016F5F7F4F0E94BD2E29960FB6F89412
:1046B000DEBF0FBECDBFCF91DF911F910F91FF9055
:1046C0000895CF93DF93EC0180E00E948A2C01973C
:1046D00051F481E00E948A2C019729F41FAE80E0FA
:1046E000DF91CF91089581E08FAFFACFCF93DF9321
:1046F000EC018EAD8130B9F51EAE0E94052A80EA2C
:1047000094E00E94D304CE010E946123882359F1D2
:10471000CE010E9429086AEF70E080E090E00E94DC
:10472000D42A8AE060E070E00E94972B85E060E088
:104730000E94362C81E160E00E94362C84E060E02B
:104740000E94362C86E060E00E94362C87E060E014
:104750000E94362C88E060E00E94362C89E060E000
:104760000E94362C2E9ADF91CF9108958F929F92BE
:10477000AF92BF92CF92DF92EF92FF920F931F936F
:10478000DF93CF93CDB7DEB764970FB6F894DEBF53
:104790000FBECDBF4C01DC01DE968C91DE978823E5
:1047A00009F0D9C081E0DE968C930E94C62AF401FC
:1047B00067AB70AF81AF92AF2E98C4014C9663E0A7
:1047C00070E041E00E94510B6CE271E080E090E00B
:1047D0000E94D42AD401DF968C91882309F4BBC0AF
:1047E000CE01019661E144E025E006E017E0E12E0C
:1047F000B8E0CB2EA9E0AA2E0E94FF09D401ED91CA
:10480000FC910480F581E02DC40168E042E020E0E5
:104810000995C4010E941F0880917A0080688093E6
:104820007A00F401828D938D4E9709F08EC08FE04F
:104830000E94752BD4015B969C938E935A978FE0C0
:104840000E94752B9C01F401938F828FF3E08831D5
:104850009F0744F482E0263638075CF521303105A5
:104860003CF473C0A4E080309A070CF06EC042C0E4
:1048700000D000D0B901882777FD8095982F2DE3CF
:1048800030E040E050E0EDB7FEB721833283438350
:10489000548326E232E040E050E0F5E6EF2EF2E00D
:1048A000FF2E012D112DE0E8AE2EB12CC12CD12C04
:1048B00041C000D000D0B901882777FD8095982F9E
:1048C00023E230E040E050E0EDB7FEB721833283D1
:1048D0004383548326E632E040E050E0B7E1EB2E1C
:1048E000B3E0FB2E012D112DACE3AA2EB12CC12C6F
:1048F000D12C20C000D000D0B901882777FD809549
:10490000982F21E030E040E050E0EDB7FEB7218382
:1049100032834383548328E133E040E050E0FFEFEB
:10492000EF2EF3E0FF2E012D112DE4E2AE2EB12C7F
:10493000C12CD12C0E94C02ED4015B967C936E9327
:104940005A970F900F900F900F90F401628D738D16
:104950008AE00E94972B64960FB6F894DEBF0FBED4
:10496000CDBFCF91DF911F910F91FF90EF90DF901E
:10497000CF90BF90AF909F908F900895CF93DF938B
:10498000EC018EAD813009F038C00E94C62A2FA9F3
:1049900038AD49AD5AAD621B730B840B950B615357
:1049A00075478040904048F1CE010E94762383B73E
:1049B000817F846083BF83B7816083BF789480E008
:1049C0000E94052A80E06CE371E242E050E00E9420
:1049D000E22983B7816083BF889583B78E7F83BFC9
:1049E00083B78E7F83BF80E066E471E242E050E0EF
:1049F0000E94E229CE010E94B623DF91CF91089553
:104A0000CF92DF92EF92FF920F931F93CF93DF939A
:104A10006C01FC0186898350823018F0C0E0D0E040
:104A200027C0613019F50E94C62A7B018C01C6019E
:104A30004C960E948F0AA8019701261B370B480B42
:104A4000590BDA01C901813137E2930730E0A3073E
:104A500030E0B30758F089599A43A040B04018F0AD
:104A6000CAE0D0E005C0C5E0D0E002C0C1E0D0E0BF
:104A700084E0F601868BC6010E948208C60160E0D0
:104A800070E00E94DE22C60161E070E0AE010E948B
:104A90004A22DF91CF911F910F91FF90EF90DF900D
:104AA000CF900895CF92DF92EF92FF920F931F93D2
:104AB000CF93DF936C01FC0186898350823018F01C
:104AC000C0E0D0E027C0613019F50E94C62A7B0102
:104AD0008C01C6014C960E948F0AA8019701261BE3
:104AE000370B480B590BDA01C901893833E19307B9
:104AF00030E0A30730E0B30758F089599A43A0404B
:104B0000B04018F0CAE0D0E005C0C5E0D0E002C077
:104B1000C1E0D0E083E0F601868BC6010E948208E6
:104B2000C60160E070E00E94DE22C60161E070E034
:104B3000AE010E948F22DF91CF911F910F91FF90C4
:104B4000EF90DF90CF900895CF93DF93EC018E89A3
:104B500081508230B8F4ED89E63080F4F0E0EE0F59
:104B6000FF1FEC0FFD1FA1A5B2A5ED91FC911197C0
:104B70000480F581E02DCD01099504C08F898F5FF8
:104B800083708F8B82E08E8BCE010E948208CE01D3
:104B900060E070E00E941E23CE0161E070E00E94A0
:104BA000DE22DF91CF910895CF93DF93EC018E89C0
:104BB0008150823030F48D898F5F67E00E94AD3084
:104BC0009D8B81E08E8BCE010E948208CE0160E039
:104BD00070E00E941E23CE0161E070E00E94DE22A0
:104BE000DF91CF910895EF92FF920F931F93DF9380
:104BF000CF93CDB7DEB729970FB6F894DEBF0FBEBF
:104C0000CDBF7C010E94C62A24E630E040E050E09F
:104C10000E94E030D701D5968D919C91D697F901ED
:104C2000E81BF90BE430F1050CF479C0D6963C93FF
:104C30002E93D59754968C91813061F5C7010E94CF
:104C40006123882309F06BC0C7010E948208C70155
:104C500060E070E00E941E23D7015596EC91F0E0D1
:104C6000EE0FFF1FEE0DFF1DA1A5B2A5ED91FC916A
:104C700011970684F785E02DCD018E010F5F1F4F40
:104C8000B8010995C70160E041E00E943108C70101
:104C9000B80143C0F7018489882309F040C0968990
:104CA000892F8350823080F4C7010E948208C70197
:104CB00060E070E00E94DE22C70161E070E040E049
:104CC00050E00E948F222BC0892F8150823070F4D7
:104CD000C7010E948208C70160E070E00E941E23A5
:104CE000C70161E070E00E94DE2219C09923B9F487
:104CF000C7010E948208C70167E371E00E94BD2ED0
:104D0000C70160E041E00E943108C70160E471E042
:104D10000E94BD2EC70162E471E00E94BD2E29965B
:104D20000FB6F894DEBF0FBECDBFCF91DF911F91BC
:104D30000F91FF90EF900895EF92FF920F931F93C2
:104D4000CF93DF93EC017A018B018D89863008F0D7
:104D50006DC08C8990E0882309F491E09C8B8C894C
:104D6000813071F5C801B70124E630E040E050E041
:104D70000E94E0303EAB2DABED89F0E0EE0FFF1F5F
:104D8000EC0FFD1F81A592A50E94191A89A59AA56D
:104D90000E94CC19ED89F0E0EE0FFF1FEC0FFD1F14
:104DA000A1A5B2A5ED91FC9111970088F189E02DA4
:104DB000CD01B801A7010995CE010E94762336C026
:104DC0008C89882399F5ED89F0E0EE0FFF1FEC0F39
:104DD000FD1F81A592A561E00E94B51EED89F0E05E
:104DE000EE0FFF1FEC0FFD1F81A592A561E00E9451
:104DF0008A1EED89F0E0EE0FFF1FEC0FFD1F01A4EE
:104E0000F2A5E02D81E0868FCE010E94B623CE016F
:104E10000E948208CE0160E070E00E94DE22CE0196
:104E200061E070E040E050E00E948F22DF91CF917E
:104E30001F910F91FF90EF9008951F920F920FB660
:104E40000F921124EF92FF920F931F932F933F9392
:104E50004F935F936F937F938F939F93AF93BF9382
:104E6000EF93FF930E94C62A7B018C0180E00E9491
:104E7000052A80E066E471E242E050E00E94E22907
:104E8000E091C605F091C70583AD813029F4CF01CB
:104E9000B801A7010E949C26E091C605F091C705C4
:104EA00013AEFF91EF91BF91AF919F918F917F9141
:104EB0006F915F914F913F912F911F910F91FF90B3
:104EC000EF900F900FBE0F901F9018950F931F93A8
:104ED000CF93DF93EC018BAD813089F50E94C62A18
:104EE0000CAD1DAD28EE33E040E050E00E94E03014
:104EF000201B310B2B30310594F11BAECE010E94EB
:104F00008208CE0160E040E00E943108CE0169E4F1
:104F100071E00E94BD2ECE0160E041E00E943108A8
:104F2000CE016FE471E00E94BD2EA99600E0899148
:104F300099910E9448190F5F0630C9F710C08BADD8
:104F4000882369F48C89813051F480E00E94052A1D
:104F500080E066E471E242E050E00E94E229DF91E5
:104F6000CF911F910F910895CF93DF93EC018C891E
:104F70008130C9F4ED89F0E0EE0FFF1FEC0FFD1F4B
:104F8000A1A5B2A5ED91FC9111970288F389E02DBE
:104F9000CD010995813039F40E94C62AAB01BC01CC
:104FA000CE010E949C26CE010E946627DF91CF9100
:104FB0000895AF92BF92DF92EF92FF920F931F93EB
:104FC000DF93CF930F92CDB7DEB78C010E94B42749
:104FD000C8010E94F325ECE1EE2EF12CE00EF11E4B
:104FE000C7010E94D00A813029F01982DD24AA2449
:104FF000BB2408C0C7010E94970A5C0181E0898335
:10500000DD24D394C7010E948C0A813029F4C701A2
:105010000E94380B5C0103C0E981E13071F50E9408
:10502000C62AF80167AB70AF81AF92AFF3E0AF165D
:10503000B104B1F084E0A816B1042CF4E2E0AE169D
:10504000B104D9F409C0F5E0AF16B10469F086E007
:10505000A816B10491F40DC0C8010E94D4250DC05A
:10506000C8010E94A42509C0C8016D2D0E94002519
:1050700004C0C8016D2D0E945225C8010E94612301
:10508000813019F4C8010E94BE240F90CF91DF91A6
:105090001F910F91FF90EF90DF90BF90AF90089518
:1050A000AF92BF92CF92DF92EF92FF920F931F9336
:1050B000CF93DF93EC018B0180E060E00E94F72B3F
:1050C00081E060E00E94F72B80E060E00E94362CD7
:1050D00081E060E00E94362C83E00E94722BA9E2FE
:1050E000EA2EF12CEC0EFD1ED70120E030E0F80195
:1050F000E20FF31F808191818D939D932E5F3F4F2F
:105100002C303105A1F789A59AA50E94851AE9A539
:10511000FAA5B788C08CD18C828D8A8F1B8E00E057
:1051200010E0D701ED91FC9113830283CF010E941F
:10513000D41AD701ED91FC911197B78AED91FC91AA
:105140001197C08EED91FD917D01D18E0F5F1F4FA4
:105150000630110531F786E0898F1F8A1C8A1BAE45
:105160001D8A82E060E00E94F72B82E061E00E94ED
:10517000362C80E066E471E242E050E00E94E229D1
:105180008DE061E00E94F72B8CE061E00E94F72B3C
:105190008DE061E00E94362C8CE061E00E94362CAC
:1051A000279A269A1EAECE010E94B6231FAA18AED9
:1051B00019AE1AAECE014C9663E070E041E00E9459
:1051C000510B80918100887F816080938100CE01A6
:1051D0000E946123813009F099C080917A00806833
:1051E00080937A008A8D9B8D4E9709F08BC08FE05B
:1051F0000E94752B9B8F8A8F8FE00E94752B9C01DC
:105200009B8F8A8FB3E088319B0744F4E2E08636B7
:105210009E076CF5813091053CF474C0F4E0803059
:105220009F070CF06FC044C000D000D0B9018827A0
:1052300077FD8095982F2DE330E040E050E0ADB74A
:10524000BEB711962D933D934D935C93149726E230
:1052500032E040E050E0F5E6EF2EF2E0FF2E012DC7
:10526000112DE0E8AE2EB12CC12CD12C43C000D0C2
:1052700000D0B901882777FD8095982F23E230E090
:1052800040E050E0EDB7FEB721833283438354837F
:1052900026E632E040E050E017E1E12E13E0F12E87
:1052A000012D112DBCE3AB2EB12CC12CD12C22C071
:1052B00000D000D0B901882777FD8095982F21E094
:1052C00030E040E050E0ADB7BEB711962D933D936E
:1052D0004D935C93149728E133E040E050E0AFEF4A
:1052E000EA2EA3E0FA2E012D112DF4E2AF2EB12CFF
:1052F000C12CD12C0E94C02E7B8F6A8F0F900F90F3
:105300000F900F906A8D7B8D8AE007C08EE190E050
:105310009B8F8A8F8AE06EE170E00E94972BE88174
:10532000F9810480F581E02DCE0168E042E020E0C3
:105330000995CE0167E371E00E94BD2ECE0160E0C9
:1053400041E00E943108CE0160E471E00E94BD2E70
:10535000CE0162E471E00E94BD2E7894DF91CF917E
:105360001F910F91FF90EF90DF90CF90BF90AF9083
:1053700008958F929F92AF92CF92EF920F934C012C
:1053800061E144E025E006E057E0E52E38E0C32E79
:10539000B9E0AB2E0E94430A86EC92E0F4019183BF
:1053A0008083C4014C960E94870A9092C705809220
:1053B000C605F401148A0F91EF90CF90AF909F90A3
:1053C0008F900895823000F5E82FF0E0EE0FFF1F78
:1053D000E853FA4F71836083882319F08130A1F478
:1053E00008C0809169008C7F842B80936900E89AC3
:1053F000089580916900440F551F440F551F837F06
:10540000842B80936900E99A0895823080F4882380
:1054100019F0813021F402C0E89801C0E998E82F22
:10542000F0E0EE0FFF1FE853FA4F1182108208954B
:105430001F920F920FB60F9211242F933F934F9309
:105440005F936F937F938F939F93AF93BF93EF93EC
:10545000FF938091C8059091C905892B29F0E091AF
:10546000C805F091C9050995FF91EF91BF91AF91E2
:105470009F918F917F916F915F914F913F912F916C
:105480000F900FBE0F901F9018951F920F920FB69E
:105490000F9211242F933F934F935F936F937F93BA
:1054A0008F939F93AF93BF93EF93FF938091CA0520
:1054B0009091CB05892B29F0E091CA05F091CB059D
:1054C0000995FF91EF91BF91AF919F918F917F913E
:1054D0006F915F914F913F912F910F900FBE0F9061
:1054E0001F9018951F920F920FB60F9211242F93B1
:1054F0003F934F935F936F937F938F939F93AF935C
:10550000BF932091D0053091D1054091D2055091A3
:10551000D3057091D405DA01C9010296A11DB11D10
:10552000672F6A5F6D3730F06D57DA01C901039656
:10553000A11DB11D6093D4058093D0059093D10532
:10554000A093D205B093D3058091CC059091CD0561
:10555000A091CE05B091CF050196A11DB11D8093FC
:10556000CC059093CD05A093CE05B093CF05BF9108
:10557000AF919F918F917F916F915F914F913F91EB
:105580002F910F900FBE0F901F9018958FB7F89422
:105590002091D0053091D1054091D2055091D3058D
:1055A0008FBFB901CA0108959B01AC017FB7F89480
:1055B0008091CC059091CD05A091CE05B091CF05FD
:1055C00066B5A89B05C06F3F19F00196A11DB11DDE
:1055D0007FBFBA2FA92F982F8827860F911DA11D55
:1055E000B11D63E0880F991FAA1FBB1F6A95D1F7F1
:1055F000BC012DC0FFB7F8948091CC059091CD05EA
:10560000A091CE05B091CF05E6B5A89B05C0EF3FB0
:1056100019F00196A11DB11DFFBFBA2FA92F982F18
:1056200088278E0F911DA11DB11DE3E0880F991FE2
:10563000AA1FBB1FEA95D1F7861B970B885E934084
:10564000C8F2215030404040504068517C4F2115F5
:1056500031054105510571F60895019739F001971B
:1056600029F0880F991F01970197F1F70895789411
:1056700084B5826084BD84B5816084BD85B5826057
:1056800085BD85B5816085BDEEE6F0E080818160F5
:105690008083E1E8F0E010828081826080838081F5
:1056A00081608083E0E8F0E0808181608083E1EBCD
:1056B000F0E0808184608083E0EBF0E080818160B5
:1056C0008083EAE7F0E0808184608083808182606B
:1056D0008083808181608083808180688083109254
:1056E000C1000895809356010895982F8E3008F0D8
:1056F0009E509770809156018295880F880F807C0C
:10570000892B80937C0080917A00806480937A005A
:1057100080917A0086FDFCCF20917800409179003D
:10572000942F80E030E0282B392BC90108951F9376
:10573000CF93DF93182FEB0161E00E94F72B2097A6
:1057400009F44AC0CF3FD10509F449C0E12FF0E088
:10575000E152FE4F84918330C1F0843028F48130CF
:1057600051F08230B1F50CC0863019F1873049F123
:10577000843079F514C084B5806884BDC7BD33C05A
:1057800084B5806284BDC8BD2EC0809180008068D1
:1057900080938000D0938900C093880024C08091BA
:1057A0008000806280938000D0938B00C0938A0039
:1057B0001AC08091B00080688093B000C093B3009D
:1057C00012C08091B00080628093B000C093B4009A
:1057D0000AC0C038D1051CF4812F60E002C0812FBF
:1057E00061E00E94362CDF91CF911F910895CF93F5
:1057F000DF93482F50E0CA0185539E4FFC0134913E
:1058000049545E4FFA018491882369F190E0880F32
:10581000991FFC01E756FE4FA591B491FC01ED558F
:10582000FE4FC591D491662351F42FB7F8948C9113
:10583000932F909589238C93888189230BC06230A4
:1058400061F42FB7F8948C91932F909589238C93C2
:105850008881832B88832FBF06C09FB7F8948C91D3
:10586000832B8C939FBFDF91CF910895482F50E0F9
:10587000CA0181529E4FFC012491CA0185539E4F5B
:10588000FC01949149545E4FFA013491332309F499
:1058900040C0222351F1233071F0243028F421300C
:1058A000A1F0223011F514C02630B1F02730C1F03C
:1058B0002430D9F404C0809180008F7703C0809198
:1058C00080008F7D8093800010C084B58F7702C0E8
:1058D00084B58F7D84BD09C08091B0008F7703C0EF
:1058E0008091B0008F7D8093B000E32FF0E0EE0F49
:1058F000FF1FED55FE4FA591B4912FB7F894662385
:1059000021F48C919095892302C08C91892B8C93E2
:105910002FBF0895682F70E0CB0181529E4FFC018C
:105920002491CB0185539E4FFC01449169547E4FD5
:10593000FB019491992319F420E030E03CC022232C
:1059400051F1233071F0243028F42130A1F02230BD
:1059500011F514C02630B1F02730C1F02430D9F44D
:1059600004C0809180008F7703C0809180008F7D7C
:105970008093800010C084B58F7702C084B58F7D7E
:1059800084BD09C08091B0008F7703C08091B000C2
:105990008F7D8093B000892F90E0880F991F8355E9
:1059A0009E4FFC01A591B4918C9120E030E08423BE
:1059B00011F021E030E0C901089508951F920F927F
:1059C0000FB60F9211242F933F934F938F939F9372
:1059D000EF93FF938091C00082FD1DC04091C600EF
:1059E00020911506309116062F5F3F4F2F733070B0
:1059F00080911706909118062817390771F0E091E9
:105A00001506F0911606EB52FA4F408330931606B6
:105A10002093150602C08091C600FF91EF919F91DF
:105A20008F914F913F912F910F900FBE0F901F902C
:105A30001895E0916906F0916A06E05CFF4F81914C
:105A4000919120813181821B930B8F739070892BF0
:105A500011F00E94DD2C08951F920F920FB60F9245
:105A600011242F933F938F939F93EF93FF93209154
:105A7000590630915A0680915B0690915C06281772
:105A8000390731F48091C1008F7D8093C10014C02B
:105A9000E0915B06F0915C06E75EF94F2081809112
:105AA0005B0690915C0601968F73907090935C06F4
:105AB00080935B062093C600FF91EF919F918F9199
:105AC0003F912F910F900FBE0F901F901895DC0102
:105AD0001C96ED91FC911D97E05CFF4F2191319157
