:100000000C9475010C94D4280C9401290C949D0136
:100010000C949D010C943F070C94180C0C949D01BA
:100020000C949D010C943F1E0C949D010C949D0119
:100030000C949D010C949D010C949D010C949D01C8
:100040000C942E290C949D010C949A2B0C94E12B6A
:100050000C949D010C949D010C949D010C949D01A8
:100060000C949D010C949D01417578007F008800DF
:1000700091009A00A00042756C6252616D70006937
:100080006E74657276616C0064656C61793173744D
:10009000006475726174696F6E00737461727400CC
:1000A000656E6400B400B900BF00C700D0004C61A9
:1000B00073657200747970650064656C6179004FD6
:1000C0006E204D616B65004F6E20427265616B0062
:1000D0004F6E2043686E6765004C6967687400E97D
:1000E00000F200536F756E64007468726573686C1B
:1000F000640064656C61790007011001190154699D
:100100006D654C61707300696E74657276616C0028
:1001100064656C6179317374002373686F74730064
:1001200032013B01410146014E01560141726D65AC
:1001300064007468726573686C640064656C6179EE
:100140000074797065004F6E2052697365004F6EC0
:100150002046616C6C004F6E2043686E6765006ED0
:100160000174017C01850153797374656D00466FDC
:1001700063757300536875747465720049527265D3
:100180006D6F746500436F6E74726173740000006C
:100190000000240027002A0000000000250028009D
:1001A0002B000000000023002600290004040404A2
:1001B0000404040402020202020203030303030311
:1001C00001020408102040800102040810200102EE
:1001D00004081020000000070002010000030406CC
:1001E000000000000000000000407A10F35A00A058
:1001F000724E18090010A5D4E80000E876481700F0
:1002000000E40B54020000CA9A3B000000E1F5052F
:10021000000080969800000040420F000000A08679
:1002200001000000102700000000E80300000000AB
:100230006400000000000A0000000000010000004F
:1002400000002C76D888DC674F0823DFC1DFAE5969
:10025000E1B1B796E5E3E453C63AE651997696E8FC
:10026000E6C28426EB898C9B62ED407C6FFCEFBC80
:100270009C9F40F2BAA56FA5F490055A2AF75C93AB
:100280006B6CF9676DC11BFCE0E40D47FEF520E6E1
:10029000B500D0ED902E0300943577050080841EC4
:1002A000080000204E0A000000C80C333333330F1F
:1002B000986E12831141EF8D2114893BE65516CFBC
:1002C000FEE6DB18D1844B381BF77C1D901DA4BBC8
:1002D000E424203284725E228100C9F124ECA1E57D
:1002E0003D278B04EC04B107C12C11241FBECFEFB6
:1002F000D8E0DEBFCDBF12E0A0E0B1E0ECEFFFE55B
:1003000002C005900D92A63DB107D9F716E0A6ED03
:10031000B2E001C01D92AC35B107E1F712E0CAEEC0
:10032000D2E004C02297FE010E94C12FC23ED10735
:10033000C9F70E94112D0C94FC2F0C940000EF9231
:10034000FF920F931F93F22FF02E47FD02C0E4E0BF
:1003500001C0E4E1242F332727FD309537FF03C088
:10036000309521953F4F4F2D512F0F2FEE2E0E948C
:1003700041028F2D912F1F910F91FF90EF900895C3
:10038000FB01DC0105900D920020E1F70895FB01CF
:10039000DC010D900020E9F7119701900D920020EB
:1003A000E1F70895A0E0B0E0E8EDF1E00C94CF2F84
:1003B0007C01EB018A01690109C0CE012196F60199
:1003C0000995F70181937F01015010400115110536
:1003D000A1F7CDB7DEB7E8E00C94EB2FA0E0B0E0DA
:1003E000E4EFF1E00C94CF2FEC017B018A0169016D
:1003F00009C0CE012196F70161917F01F6010995AF
:100400000150104001151105A1F7CDB7DEB7E8E0A6
:100410000C94EB2FFB019F01E8944230C4F045326D
:10042000B4F44A3029F497FB1EF4909581959F4FC0
:10043000642F77270E945B2F805D8A330CF0895DE3
:100440008193CB010097A1F716F45DE251931082DE
:10045000C9010C947B04FB019F01423074F04532CA
:1004600064F4642F77270E945B2F805D8A330CF041
:10047000895D8193CB010097A1F71082C9010C948B
:100480007B04A9E0B0E0E7E4F2E00C94C92F6A0134
:10049000122FA02EBE2C2BE3201718F42CE3922E43
:1004A00002C0902E9394AE014F5F5F4F27E0092D5D
:1004B0000E94A303BC018981E82EFF24C701897033
:1004C0009070019711F4ADE209C0B1FE02C0ABE239
:1004D00005C0B0FC02C0A0E001C0A0E2E3FE3BC04A
:1004E000AA2311F423E001C024E0211710F020E03A
:1004F00002C0121B212FEB2CB4FE02C0322F0AC007
:10050000F601322F80E202C0819331503323E1F7AC
:10051000C20ED11CAA2319F0F601A1936F01F601B6
:100520003196E2FE05C09EE4D6019C9381E404C0AE
:100530009EE6D6019C9381E611968C939183329628
:10054000DF01832F90E202C09D9381508823E1F761
:10055000E30FF11D40C0E2FE42C0AA2311F423E0E4
:1005600001C024E0211710F020E002C0121B212F4F
:10057000EB2CB4FE02C0922F0AC0F601922F80E24B
:1005800002C0819391509923E1F7C20ED11CAA2396
:1005900019F0F601A1936F01F6013196E2FE08C051
:1005A00089E4D6018C938EE411968C9386E407C07F
:1005B00089E6D6018C938EE611968C9386E681832C
:1005C0003296DF01892F20E202C02D9381508823CB
:1005D000E1F7E90FF11D10822EEF3FEFAFC01616C5
:1005E00017061CF041E050E003C0AB014F5F5F4FC6
:1005F000AA2019F480E090E003C08A2D90E00196D3
:1006000020E030E0AA2311F021E030E0240F351F74
:10061000280F391F812F90E02817390714F020E0A8
:1006200002C0121B212F4B2D50E0CA018071907027
:10063000B4FC0DC0B3FC0BC0F601322F40E202C087
:10064000419331503323E1F7C20ED11C01C0322F48
:10065000AA2319F0F601A1936F01892B11F0132F32
:100660000AC0F601132F80E302C0819311501123B9
:10067000E1F7C30ED11C092D060FBA8090E1892E37
:10068000912C8E209F20E4FE04C0F1E3BF1609F4F4
:100690000150101614F001E003C0093008F008E022
:1006A0009B0177FF02C020E030E0CB010196821B66
:1006B000930BFE013196E80FF91F8EE2F82E3B01F5
:1006C000601A71088A2D90E044275527481B590B62
:1006D0008FEF2F3F380719F4D601FD926D01621795
:1006E00073072CF06216730614F4808101C080E356
:1006F0002150304031962417350724F0D6018D93D0
:100700006D01E6CF2617370749F4B5E3BB1528F08E
:10071000BB1621F48114910409F481E3F60181935D
:10072000D601812F90E202C09C93815011968823BC
:10073000D9F7E10FF11D108220E030E0C9012996C0
:10074000EEE00C94E52F283008F027E03327DA019B
:10075000990F311D87FD916000966105710539F48F
:1007600032602E5F3D9330E32A95E1F708959F3F75
:1007700030F080387105610509F03C5F3C5F3D93C6
:10078000913008F08068911DDF93CF931F930F93F2
:10079000FF92EF92192F987F9695E92F969596954F
:1007A000E90FFF27EE5BFD4F99273327EE24FF2447
:1007B000A701E70105900894079428F4360FE71E77
:1007C000F81E491F511D660F771F881F991F069439
:1007D000A1F70590079428F4E70EF81E491F561F4D
:1007E000C11D770F881F991F661F0694A1F70590FA
:1007F000079428F4F80E491F561FC71FD11D880FF4
:10080000991F661F771F0694A1F70590079420F49F
:10081000490F561FC71FD81F990F661F771F881FC4
:100820000694A9F784911095177041F0D695C79555
:1008300057954795F794E7941A95C1F7E8EEF1E0DC
:1008400068941590159135916591959105907FE289
:100850007395E118F10A430B560BC90BD009C0F789
:10086000E10CF11E431F561FC91FD01D7EF47033CB
:1008700011F48A95E6CFE894015030F0080F0AF49D
:100880000027021708F4202F2395022F7A3328F02F
:1008900079E37D932A95E9F710C07D932A9589F62F
:1008A000069497956795379517951794E118F10A6F
:1008B000430B560BC90BD00998F023957E91739585
:1008C0007A3308F070E37C932013B8F77E9170615F
:1008D0007D9330F0839571E37D9370E32A95E1F782
:1008E0001124EF90FF900F911F91CF91DF919927E5
:1008F00087FD90950895DC01FC01672F71917723A6
:10090000E1F7329704C07C916D9370836291AE17CA
:10091000BF07C8F3089586ED92E00E94E30D0895A5
:1009200086ED92E00E94960D86ED92E00E947B0D8E
:100930008823E1F086ED92E00E94920D0197B1F0DC
:1009400086ED92E00E94920D892B81F086ED92E077
:100950000E94920D029751F086ED92E00E94920D56
:10096000039721F086ED92E00E94920D089586EDA6
:1009700092E00E949A0D0895449A459AE9EBF0E0BE
:1009800080818E7F808380818D7F808380E28093D1
:10099000B80084E48093BC0008951092BC000895D0
:1009A000662319F0449A459A089544984598089505
:1009B000FC0180917B0490917D04981B90937C04B2
:1009C000882319F410927C040895815080937B044D
:1009D000E90FF11D828108950895EF92FF920F9320
:1009E0001F930E9482297B018C0184E98093BC00C3
:1009F0001BC021153105E1F00E9482296E197F0983
:100A0000800B910B20917E0430917F0440E050E0F8
:100A1000621773078407950738F01092BC0084E4CE
:100A20008093BC0081E009C020917E0430917F0456
:100A30008091BC0084FDDDCF80E01F910F91FF907D
:100A4000EF900895CF92DF92EF92FF921F93162FAF
:100A50000E9482296B017C01112311F084EC01C0FA
:100A600084E88093BC001BC021153105E1F00E9491
:100A700082296C197D098E099F0920917E0430918D
:100A80007F0440E050E0621773078407950738F051
:100A90001092BC0084E48093BC0091E019C02091C6
:100AA0007E0430917F048091BC0087FFDDCF809170
:100AB000B900887F883349F49091B900987F1092EB
:100AC000BC0084E48093BC0003C09091B900987F7F
:100AD000892F1F91FF90EF90DF90CF900895EF92B4
:100AE000FF920F931F93CF93DF93EC016093BB00B2
:100AF0000E9482297B018C0184E88093BC001BC08A
:100B000021153105E1F00E9482296E197F09800BC1
:100B1000910B20917E0430917F0440E050E06217F9
:100B200073078407950738F01092BC0084E4809323
:100B3000BC0011E020C020917E0430917F048091A0
:100B4000BC0087FFDDCF8091B900887F883211F427
:100B500010E011C01091B900187F8091B900887F12
:100B6000803321F4CE010E94ED0405C01092BC0038
:100B700084E48093BC00812FDF91CF911F910F916E
:100B8000FF90EF900895EF92FF920F931F93CF93F2
:100B9000DF93EC016093BB000E9482297B018C01F2
:100BA00084E88093BC001BC021153105E1F00E9450
:100BB00082296E197F09800B910B20917E04309160
:100BC0007F0440E050E0621773078407950738F010
:100BD0001092BC0084E48093BC0011E01DC0209101
:100BE0007E0430917F048091BC0087FFDDCF80912F
:100BF000B900887F883179F08091B900887F80348E
:100C000099F409C08091B900887F8834B1F4CE018D
:100C10000E94ED0401C010E0812FDF91CF911F9160
:100C20000F91FF90EF9008951091B900187F809177
:100C3000B900887F803231F7EACF1092BC0084E49B
:100C40008093BC00E9CFEF92FF920F931F930E9415
:100C500082297B018C0184EA8093BC001BC0211592
:100C60003105E1F00E9482296E197F09800B910BFA
:100C700020917E0430917F0440E050E062177307BA
:100C80008407950738F01092BC0084E48093BC0080
:100C900091E021C020917E0430917F048091BC00BE
:100CA00087FFDDCF8091B900887F883099F08091EF
:100CB000B900887F8031A9F40DC09091B900987F68
:100CC0001092BC0084E48093BC0005C09091B900F0
:100CD000987F01C090E0892F1F910F91FF90EF90B6
:100CE00008958091B900887F883381F7E6CFEF922D
:100CF000FF920F931F93CF93DF93EC01162F042FD6
:100D0000E22E10927B0410927C04222311F4EE2434
:100D1000E394EA94E982E3941882CE010E942306C8
:100D20008883882309F061C0110FCE01612F0E94D2
:100D3000C3058883882329F0813009F056C082E0FA
:100D400054C0CE01602F0E946F058883882329F04C
:100D5000813009F04AC083E048C0CE010E942306DA
:100D60008883882329F0813009F03FC084E03DC0AA
:100D70001F5FCE01612F0E94C3058883882319F469
:100D80008E01FF2425C0813081F585E02EC0898148
:100D9000F81651F4CE0160E00E942205888381306C
:100DA00019F1883551F021C0CE0161E00E94220581
:100DB00088838130C9F08035C1F48091BB00F8018F
:100DC0008283F394F0927B04F0927D040F5F1F4FB7
:100DD000FE14E8F2CE010E94ED048883882329F0F6
:100DE000813019F487E001C086E0DF91CF911F9137
:100DF0000F91FF90EF9008950E9477060895FF925B
:100E00000F931F93CF93DF93EC01162F042FF22E35
:100E100018820E9423068883882341F5110FCE0192
:100E2000612F0E94C3058883882321F08130F1F46B
:100E300082E01CC0CE01602F0E946F05888388234A
:100E400039F4CE016F2D0E946F058883882319F035
:100E5000813061F40AC0CE010E94ED0488838823AA
:100E600029F0813019F487E001C083E0DF91CF9150
:100E70001F910F91FF9008950E94FF0608951F9201
:100E80000F920FB60F921124EF92FF920F931F93C0
:100E90002F933F934F935F936F937F938F939F9382
:100EA000AF93BF93CF93DF93EF93FF93E091EC0465
:100EB000F091ED0420819091F1049227E091EE04ED
:100EC000F091EF0480819823A9F12093F104C2EFFF
:100ED000D4E0E92EFF24022F10E020C08381282FC8
:100EE00030E0C70182239323892BB9F082818130BE
:100EF00069F0823029F420233123232B39F00DC0EF
:100F0000833059F420233123232B39F084818093BB
:100F1000BB040190F081E02D09952296E881F981CA
:100F20003097E1F68BB39091F00489238BBB882333
:100F300009F0BCCFFF91EF91DF91CF91BF91AF91BD
:100F40009F918F917F916F915F914F913F912F91E1
:100F50001F910F91FF90EF900F900FBE0F901F9079
:100F60001895E2EAF4E0118210821282359684E04C
:100F7000EB3BF807C1F7E6EAF1E085919491909395
:100F8000BD048093BC048BE690E09093BF048093F3
:100F9000BE0481E08093C004A2ECB4E01D921D92D7
:100FA000E4E0A43DBE07D1F728EA31E0F9018591DC
:100FB000949111969C938E938CE690E013969C935B
:100FC0008E93129782E014968C93149716961D9226
:100FD0001D92F4E0AC3EBF07D1F72AEA31E0F901F7
:100FE0008591949111969C938E938DE690E0139643
:100FF0009C938E93129784E014968C931497FD0122
:1010000036961192119285E0E430F807D1F70895F1
:10101000FC011382128282E591E09183808308951E
:10102000DC01ED91FC910680F781E02D40E009950F
:101030000895FC016581862F846085836C60CF01F3
:101040000E9410080895FC0165816B7F65836860CC
:101050000E9410080895DF93CF93CDB7DEB7609755
:101060000FB6F894DEBF0FBECDBF9C01FE013196D6
:10107000A2E6B1E088E00D9001928150E1F7FE0117
:101080003996AAE5B1E088E00D9001928150E1F730
:10109000F9019781491710F0492F4150F9018085D6
:1010A000803151F4943041F4E42FF0E0EE0FFF1F53
:1010B000EC0FFD1F818507C0E42FF0E0EE0FFF1F4E
:1010C000EC0FFD1F8181680F6068C9010E94100844
:1010D00060960FB6F894DEBF0FBECDBFCF91DF9103
:1010E0000895DC01ED91FC910680F781E02D41E04F
:1010F000099581E090E0089561E00E94100880ED7C
:1011000097E00E94E92908950F931F938C01FC0139
:10111000838561E00E94F22AF801838560E00E94E5
:10112000F22A1F910F910895CF92DF92EF92FF92D2
:101130000F931F93CF93DF93D82EC92E282F392FCB
:10114000C9018C01C0E0D0E0E62EFF24B7010C2ECF
:1011500002C0759567950A94E2F76170F80184857D
:101160000E94F22A21960F5F1F4FC830D10571F7F8
:101170008D2D9C2D0E948408DF91CF911F910F919E
:10118000FF90EF90DF90CF900895CF92DF92EF9293
:10119000FF920F931F93CF93DF93D82EC92E282F42
:1011A000392FC9018C01C0E0D0E0E62EFF24B70141
:1011B0000C2E02C0759567950A94E2F76170F801EC
:1011C00084850E94F22A21960F5F1F4FC430D105FB
:1011D00071F78D2D9C2D0E948408DF91CF911F9176
:1011E0000F91FF90EF90DF90CF9008951F93CF93D2
:1011F000DF93EC01162F8985642F0E94F22A8A85DD
:101200008F3F19F060E00E94F22A8C8184FF05C0B4
:10121000CE01612F0E9494080EC0612F70E084E01F
:10122000759567958A95E1F7CE010E94C508CE01B4
:10123000612F0E94C508DF91CF911F910895CF9330
:10124000DF93EC01423018F08C8188608C834F83EF
:101250006887222329F0413019F48C8184608C83C3
:1012600080E593EC0E94E929898560E00E94F22ADA
:101270008B8560E00E94F22A8A858F3F19F060E03A
:101280000E94F22A6C8164FD1DC0CE0163E00E94C1
:10129000C50884E991E10E94E929CE0163E00E943A
:1012A000C50884E991E10E94E929CE0163E00E942A
:1012B000C50886E990E00E94E929CE0162E00E941B
:1012C000C50816C06062CE010E94100884E991E151
:1012D0000E94E9296C816062CE010E94100886E9B3
:1012E00090E00E94E9296C816062CE010E941008A2
:1012F0006C816062CE010E94100884E08D83CE0173
:101300000E941908CE010E947C0882E08E83CE01E3
:1013100066E00E941008DF91CF9108956F927F924E
:101320008F92AF92CF92EF920F931F93DF93CF9351
:10133000CDB7DEB73C01162F8E2DF30141872287F2
:101340000387E486C586A68687869D85908B9E85C5
:10135000918B9F85928B9889938B61E00E94B32A31
:10136000F301858561E00E94B32AF301868561E07F
:101370000E94B32AF301878561E00E94B32A1123FA
:10138000A1F4F301808961E00E94B32AF30181890D
:1013900061E00E94B32AF301828961E00E94B32ACE
:1013A000F301838961E00E94B32AF301818561E042
:1013B0000E94B32AF30182858F3F19F061E00E94F9
:1013C000B32AF301838561E00E94B32A112319F047
:1013D000F301148203C080E1F3018483CF91DF9194
:1013E0001F910F91EF90CF90AF908F907F906F9063
:1013F00008955F926F927F928F929F92AF92BF9269
:10140000CF92DF92EF92FF920F931F933C01162F22
:10141000F42ED22EB02E9E2C5C2C8A2C0E94080812
:101420008EE691E0D3018D939C9300D000D0EDB770
:10143000FEB73196ADB7BEB711961C9211821282DB
:101440001382C30161E0412F2F2D0D2DEB2CC92CF0
:10145000A52C0E948E090F900F900F900F901F9156
:101460000F91FF90EF90DF90CF90BF90AF909F9043
:101470008F907F906F905F9008955F926F927F92B0
:101480008F929F92AF92BF92CF92DF92EF92FF9294
:101490000F931F933C01162FF42ED22EB02E9E2CAC
:1014A0005C2C8A2C0E9408088EE691E0D3018D9373
:1014B0009C9300D000D0EDB7FEB73196ADB7BEB764
:1014C00011961C92118212821382C30161E0412F96
:1014D0002F2D0D2DEB2CC92CA52C0E948E090F90C1
:1014E0000F900F900F901F910F91FF90EF90DF9052
:1014F000CF90BF90AF909F908F907F906F905F90B4
:10150000089590930505809304050895FC01828158
:101510000895FC012581368147815085B901CA01B2
:101520000895FC01838190E008951F920F920FB6F9
:101530000F9211240F931F932F933F934F935F9319
:101540006F937F938F939F93AF93BF93EF93FF938B
:10155000009104051091050581E0F80182838483E0
:101560000E948229F8016583768387839087FF91A3
:10157000EF91BF91AF919F918F917F916F915F910B
:101580004F913F912F911F910F910F900FBE0F9090
:101590001F901895CF93DF93EC018C81813061F51A
:1015A0000E9482292D813E814F815885621B730BD9
:1015B000840B950B6C54744080409040E8F00E947E
:1015C000822924E630E040E050E00E94822F8985A5
:1015D0009A85281B390B8B859C852817390760F065
:1015E0000E94822924E630E040E050E00E94822FF1
:1015F0003A87298781E001C080E0DF91CF9108958B
:101600001F93CF93DF93EC018A81882319F180E83F
:1016100094E06BE170E042E050E021E030E00E94B5
:10162000FC0680E894E00E94D804182F80E894E03B
:101630006BE170E043E050E021E030E00E94FC0606
:1016400080E894E00E94D8041A82113011F490E0EE
:1016500003C003C08FEF9FEF282F822FDF91CF9120
:101660001F910895CF93DF93EC010E94000B20E0BF
:1016700030E003C02F5F3F4F86958823D9F72B8337
:101680002930310519F02115310509F41C82C901F1
:10169000DF91CF9108951F93CF93DF93EC01142F27
:1016A0006883625069831A821C821D821E821F8297
:1016B000188681E090E09C878B8780E894E00E9408
:1016C000BC0480E894E060E00E94D00480E894E0EC
:1016D0006BE170E049E350E02FEF30E00E943C07FF
:1016E00064E670E080E090E00E94902980E894E059
:1016F0000E94BC0480E894E060E00E94D0041130B5
:1017000081F464E670E080E090E00E94902980E837
:1017100094E06BE170E047E350E020E030E00E94AD
:101720003C07888160E00E94B32A898165E97AE0FC
:1017300042E050E00E949E28DF91CF911F910895D2
:10174000FC01909307058093060512821382148290
:10175000158280E090E0A0E8BFE386839783A087AE
:10176000B1870895FC01718360830895EF92FF9221
:101770000F931F93CF93DF93FC01DB01128683B796
:10178000816083BF79E0C0E1D0E03AC07150672F3B
:10179000CE01072E02C0880F991F0A94E2F77C0140
:1017A0000027F7FC0095102F2E153F054007510725
:1017B00010F4772359F763FD02C090E001C090E276
:1017C000872F8770982B9064F894A89584B7877FAB
:1017D00084BF809160008861809360009093600076
:1017E0007894128682858823E9F48C918823D1F439
:1017F00085B7806685BF85B78F7D85BF8895F2CF19
:10180000211531054105510509F0C1CF83B78E7F00
:1018100083BF80E090E0DF91CF911F910F91FF9007
:10182000EF9008952E193F09400B510B4AF7EECF68
:101830001F920F920FB60F9211248F93EF93FF9385
:10184000F894A89584B7877F84BFE0E6F0E08081B4
:101850008861808310827894E0910605F0910705F5
:1018600081E08287FF91EF918F910F900FBE0F90D3
:101870001F9018954F925F926F927F928F929F92D6
:10188000AF92BF92CF92DF92EF92FF920F931F938E
:101890002C018B0159016A0183B7817F83BF0E94AC
:1018A00082293B014C01C201B801A60195010E94A9
:1018B000B60B0E9482297B018C01C601B5010E94F2
:1018C0003F2E5B016C01E618F70808091909C801E9
:1018D000B7010E94412E9B01AC01C601B5010E94D7
:1018E000AB2DF20166837783808791871F910F91DB
:1018F000FF90EF90DF90CF90BF90AF909F908F9030
:101900007F906F905F904F900895AF92BF92CF926B
:10191000DF92EF92FF920F931F93CF93DF93EC012F
:101920005B0169017A01C80120917A002F77209329
:101930007A0064E670E00E946F2F019739F4CE01BF
:10194000B501A70196010E943A0C2BC083B7817F95
:101950009881892B83BFC701B6010E943F2E2E813B
:101960003F81488559850E94CD2E0E94132E9B01F0
:10197000AC01CE01B5010E94B60B2A813B814C819E
:101980005D81C20ED31EE41EF51EAA2797FDA09509
:10199000BA2FC81AD90AEA0AFB0ACA82DB82EC8289
:1019A000FD8280917A00806880937A00DF91CF91E8
:1019B0001F910F91FF90EF90DF90CF90BF90AF906D
:1019C00008950F931F93DC018B01FB011082ED91B1
:1019D000FC910190F081E02D0995B8014AE050E0BA
:1019E0000E940A021F910F910895CB0168E670E0F2
:1019F0000E94C00108951F93CF93DF93EC0161E033
:101A000041E00E94011ECE0162E070E00E94F117E9
:101A10008130910569F08130910520F0029771F0D5
:101A200010E01FC0E881F9810488F589E02D0BC022
:101A3000E881F9810688F789E02D05C0E881F98100
:101A4000008CF18DE02DCE010995182F813049F4DD
:101A50000E9482296BA77CA78DA79EA71B8F1C8F36
:101A60001D8F812FDF91CF911F9108950F931F93A9
:101A70008C01FC0184890E94312A95958795959562
:101A80008795F801818B90E01F910F9108950F9336
:101A90001F938C018AE791E0F8019183808383E0B2
:101AA00084831786168EC80162E070E040E050E043
:101AB0000E94F917C80160E070E040E050E00E9429
:101AC000F917C80161E070E040E050E00E94F917AA
:101AD000F801108A80E1848B84EF91E092A381A3C6
:101AE00086E990E090A3878F178A81E0808F118E1E
:101AF0001F910F910895FC01878D882391F080A19B
:101B000090E0880F991FE80FF91FE15BFF4FA0815C
:101B1000B181ED91FC9111970280F381E02DCD010F
:101B200009950895FC0180A190E008950B960E940C
:101B300095260895FC01DC01A55DBE4F8C9311969E
:101B4000FC93DC01AB56BE4F8C931196FC939C0129
:101B5000215B3F4FE55AFF4FD901ED93FC93EB55C5
:101B6000F040DF01AF5ABF4FED53FF4FED93FC93B1
:101B7000E35CF040DF01AD5ABF4FE157FF4FED93FB
:101B8000FC93EF58F040DF01AB5ABF4FE950FF4FD5
:101B9000ED93FC93E75FF040DF01A95ABF4FE35D8F
:101BA000FE4FED93FC93ED52F140CF018F599E4FC4
:101BB000E75AFF4F91838083CF018E549040B90143
:101BC0000E940C2708950F931F938C010E94A00B75
:101BD000C8010B960E947528C801855A9F4F0E9424
:101BE000E113C80181579F4F0E94BD14C8018D5356
:101BF0009F4F0E944F15C80189509F4F0E949C170C
:101C0000C801835D9E4F0E94470DC8018F599E4FAA
:101C10000E94F80F1F910F91089580E090E00895C1
:101C2000FC01878D90A14AE050E00E942B020895AC
:101C3000FC018089E82FF0E0EE0FFF1FE459FF4F11
:101C400025913491CB01B9010E94C0010895CB01C7
:101C500066E770E00E94C0010895AF92BF92CF92F4
:101C6000DF92EF92FF920F931F93DF93CF9300D0F9
:101C700000D00F92CDB7DEB77C018B015A0169010C
:101C8000F90110820E94F117885E934088F4C60122
:101C900060E071E00E94C701C5018E010F5F1F4F18
:101CA000B8014AE050E00E942B02C601B80122C0F0
:101CB000C701B8010E94F11781569A4E38F5C70145
:101CC000B8010E94F117A0E0B0E0BC01CD010E9474
:101CD0003F2E20E030E04AE754E40E94AB2D43E081
:101CE00021E07E010894E11CF11C87010E949F0104
:101CF000C601B7010E94C701C60163E071E00E94FE
:101D0000C701C60160E070E00E94C7010F900F900C
:101D10000F900F900F90CF91DF911F910F91FF9037
:101D2000EF90DF90CF90BF90AF900895EF92FF9229
:101D30000F931F93CF93DF93EC01F82EED2E63E00A
:101D400070E00E94F1178C01CE0164E070E00E9407
:101D5000F1178017910720F0CE0164E070E003C016
:101D6000CE0163E070E00E94F1179FAF8EAF8F2D20
:101D70009E2D60E070E00E94F1172EAD3FAD48EE61
:101D800053E0BC01649FC001659F900D749F900D4E
:101D900011248217930790F4285E334014F45FAF48
:101DA0004EAF8EAD9FAD68EE73E00E946F2FAB011A
:101DB0008F2D9E2D60E070E00E94F9178F2D9E2DD3
:101DC00060E070E00E94F1178C018F2D9E2D62E083
:101DD00070E00E94F1178017910768F48F2D9E2DF7
:101DE00060E070E00E94F117AC018F2D9E2D62E043
:101DF00070E00E94F917DF91CF911F910F91FF9032
:101E0000EF9008956F927F928F929F92AF92BF92C0
:101E1000CF92DF92EF92FF920F931F93CF93DF93B6
:101E20007C016B01E9013801442319F40FEF1FEF26
:101E300002C001E010E0BE2CAF2CC701B6010E9429
:101E4000F117892B31F4C701B60141E250E00E943D
:101E5000F9171C161D060CF0AEC0C4EFD1E00C9FA4
:101E600040010D9F900C1C9F900C11248B2D9A2DDE
:101E7000B6010E94F117885E934008F04AC0C0E0A6
:101E8000D0E08B2D9A2DB6010E94F1179C01FE0126
:101E9000EA54FE4F608188EE93E070E00E945B2F71
:101EA0002617370741F4C00FD11FD701DD96DC9309
:101EB000CE93DC9704C02196C930D10511F7F70104
:101EC00084AD95AD97FF02C015AE14AED701DC9678
:101ED0002D913C91DD97F901EA54FE4F608188EE27
:101EE00093E070E00E945B2FF70173AF62AF29307F
:101EF00031050CF456C08B2D9A2DB6010E94F117B6
:101F00009401280F391FD701DB963C932E93DA9763
:101F100048C08B2D9A2DB6010E94F117805197422F
:101F2000D0F48B2D9A2DB6010E94F1179401280F41
:101F3000391FF70133AF22AF285E334090F588E0B8
:101F400090E0D701DD969C938E93DC97DB96DC9333
:101F5000CE93DA9726C08B2D9A2DB6010E94F117E9
:101F600081569A4EF0F48B2D9A2DB6010E94F117EE
:101F700028EE33E0F9010E9F90010F9F300D1E9F58
:101F8000300D1124280F391FD701DB963C932E9377
:101F9000DA9721563A4E28F080E69AEEF70193AF91
:101FA00082AFD701DA964D915C91DB978B2D9A2DFC
:101FB000B6010E94F917D701DC96ED91FC91DD97EF
:101FC000EA54FE4F4081C701B60150E093010E94E0
:101FD0002D0EDF91CF911F910F91FF90EF90DF9029
:101FE000CF90BF90AF909F908F907F906F9008950B
:101FF0000F931F938C018AE991E0F801918380830C
:1020000085E084831786168EC80160E070E040E0AA
:1020100050E00E94F917C80161E070E040E050E034
:102020000E94F917C80162E070E040E050E00E94B1
:10203000F917C80163E070E041E250E00E94F9172F
:10204000C80164E070E048EE53E00E94F917F8011F
:1020500013A614A615A616A6108A84EF91E092A3E3
:1020600081A386E990E090A3878F178A81E0808F13
:10207000118E81E290E097AB86AB88EE93E091AF52
:1020800080AF97AF86AF15AE14AE13AE12AE138A03
:10209000128A1F910F9108950F931F93CF93DF938F
:1020A000EC018B019A018889823009F444C08330A5
:1020B00030F4882319F1813009F066C007C08330FD
:1020C00009F455C0843009F05FC055C0CE0161E00D
:1020D00070E040EF52ED0E940118CE0161E070E027
:1020E0000E94F117892B31F4F8011082C80167E0D2
:1020F00071E01AC0CE0161E070E031C0CE0160E055
:1021000070E040EF52ED0E940118CE010E94960E41
:10211000CE0160E070E00E94F117892B41F4F801D4
:102120001082C8016BE071E00E94C7012DC0CE0192
:1021300060E070E014C0CE0162E070E040EF52ED6C
:102140000E940118CE010E94960ECE0162E070E05E
:102150000E94F117892B19F3CE0162E070E00E9412
:10216000F117BC01CE01A8010E949D1B0DC0CE013C
:1021700063E070E003C0CE0164E070E041E00E94E3
:10218000020FCE010E94960EDF91CF911F910F9109
:1021900008950F931F93CF93DF93EC018B019A0166
:1021A0008889823009F444C0833030F4882319F1DF
:1021B000813009F066C007C0833009F455C084300F
:1021C00009F05FC055C0CE0161E070E040EF52ED14
:1021D0000E941918CE0161E070E00E94F117892B6E
:1021E00031F4F8011082C80167E071E01AC0CE0135
:1021F00061E070E031C0CE0160E070E040EF52ED90
:102200000E941918CE010E94960ECE0160E070E087
:102210000E94F117892B41F4F8011082C8016BE08C
:1022200071E00E94C7012DC0CE0160E070E014C0D3
:10223000CE0162E070E040EF52ED0E941918CE012D
:102240000E94960ECE0162E070E00E94F117892B89
:1022500019F3CE0162E070E00E94F117BC01CE01DB
:10226000A8010E949D1B0DC0CE0163E070E003C079
:10227000CE0164E070E040E00E94020FCE010E94B7
:10228000960EDF91CF911F910F91089580E00E94EB
:10229000462B019731F481E00E94462B20E0019704
:1022A00009F021E0822F0895CF92DF92EF92FF9202
:1022B0000F931F93CF93DF93EC018A899B89892B1E
:1022C00091F40E9482296FA778AB89AB9AABC05C6E
:1022D000DF4F28EE33E040E050E00E94822F398348
:1022E0002883C054D0400E9482297B018C0192E453
:1022F000C92ED12CCC0EDD1EC801B70128EE33E06B
:1023000040E050E00E94822FC05CDF4F88819981BD
:10231000C054D040281B390BF601318320838FA590
:1023200098A9A9A9BAA9E81AF90A0A0B1B0BCE01A8
:1023300060E070E00E94F117A0E0B0E0BC01CD01C8
:1023400028EE33E040E050E00E94302F9B01AC01CA
:102350002E193F09400B510BB901CA01DF91CF91F2
:102360001F910F91FF90EF90DF90CF900895CF9342
:10237000DF93EC018A899B89892B11F080E018C0DA
:102380008BA59CA5ADA5BEA50097A105B10531F40F
:102390000E9482296BA77CA78DA79EA781E08B8FC7
:1023A0008C8F8D8FCE0161E040E00E94011E81E0A4
:1023B000DF91CF9108954F925F926F927F928F92AB
:1023C0009F92AF92BF92CF92DF92EF92FF920F93C4
:1023D0001F93CF93DF93EC01582E4D2E60E070E0F9
:1023E0000E94F117892B49F4CE0160E070E041E0D2
:1023F00050E021E030E00E94011822E4822E912C6E
:102400008C0E9D1EF40100811181852D942D62E0BA
:1024100070E00E94F1170817190760F08D89882372
:1024200049F48E89882331F4F4011182108281E00D
:102430008E8F6EC0CE010E9454113B014C01852D40
:10244000942D62E070E00E94F1175C01852D942DBF
:1024500060E070E00E94F1176C01852D942D64E01E
:1024600070E00E94F1177C01852D942D63E070E0EF
:102470000E94F1178C01852D942D63E070E00E947D
:10248000F1179C01C501B6010E945B2FC701801B9B
:10249000910B0E945B2F8A899B89AC01649FC001CC
:1024A000659F900D749F900D1124820F931F98A328
:1024B0008F8FCE010E94B7118130D1F1852D942DDF
:1024C00060E040E00E94011ECE010E944611813072
:1024D000C1F48D898823A9F48E89882391F48CA96D
:1024E0009DA964E070E00E94B20BBE01625E7F4F66
:1024F0000A891B898CA99DA9A40193010E94850CBE
:1025000009C097FC07C0611471048104910411F0A3
:1025100080E00EC00E9482296BA77CA78DA79EA792
:102520006FA778AB89AB9AAB81E08B8F8C8F8D8F47
:10253000DF91CF911F910F91FF90EF90DF90CF909F
:10254000BF90AF909F908F907F906F905F904F90D3
:1025500008950F931F93DC018B01FB011082ED9115
:10256000FC910190F081E02D0995B8014AE050E01E
:102570000E940A021F910F9108950F931F93CF930A
:10258000DF93EC01E881F981008CF18DE02D099554
:10259000813011F020E00CC0098910E0CE0162E02A
:1025A00070E00E94F11720E08017910708F021E009
:1025B000822FDF91CF911F910F9108950F931F9359
:1025C000CF93DF93EC01E881F981008CF18DE02D50
:1025D0000995813011F020E00CC0098910E0CE018E
:1025E00062E070E00E94F11720E08017910708F484
:1025F00021E0822FDF91CF911F910F9108950F93CA
:102600001F938B0160E070E00E94F117FC01EE0F58
:10261000FF1FE855FF4F65917491C8010E94C001EA
:102620001F910F910895FC018089E82FF0E0EE0FD3
:10263000FF1FEC55FF4F25913491CB01B9010E944A
:10264000C0010895CB016EEA70E00E94C0010895B8
:102650000F931F93CF93DF93EC018B019A0188892D
:10266000882319F0813089F510C0CE0160E070E058
:1026700042E050E00E940118E881F981028CF38D5C
:10268000E02DCE01B801099520C0CE0161E070E0D7
:102690004FE057E20E940118CE0161E070E00E9415
:1026A000F117892B41F4F8011082C8016DE071E047
:1026B0000E94C7010AC0CE0161E070E00E94F117DC
:1026C000BC01CE01A8010E94391BDF91CF911F915F
:1026D0000F9108950F931F93CF93DF93EC018B011C
:1026E0009A018889882319F0813089F510C0CE01BC
:1026F00060E070E042E050E00E941918E881F98142
:10270000028CF38DE02DCE01B801099520C0CE01D9
:1027100061E070E04FE057E20E941918CE0161E0DD
:1027200070E00E94F117892B41F4F8011082C80172
:102730006DE071E00E94C7010AC0CE0161E070E067
:102740000E94F117BC01CE01A8010E94391BDF9144
:10275000CF911F910F9108950F931F93CF93DF9304
:10276000EC0162E070E00E94F1178C018C890E94FC
:10277000312A9595879595958795898B20E090E0EE
:10278000081719070CF421E08F85281711F480E051
:1027900002C02F8781E0DF91CF911F910F910895A3
:1027A0000F931F938C01FC0184890E94312A959517
:1027B000879595958795F801818B90E01F910F91F2
:1027C00008950F931F938C0183EC91E0F80191839E
:1027D000808382E084831786168EC80160E070E0F3
:1027E00040E050E00E94F917C80161E070E040E06D
:1027F00050E00E94F917C80162E070E04AEF50E033
:102800000E94F917F801108A84E1848B84EF91E02B
:1028100092A381A386E990E090A3878F178A81E035
:10282000808F118E1F910F9108951F93CF93DF9387
:10283000EC0162E070E04AEF50E00E94F917CE012F
:1028400061E041E00E94011ECE0160E070E00E9464
:10285000F1178130910569F08130910520F00297E0
:1028600071F010E01FC0E881F9810488F589E02D3E
:102870000BC0E881F9810688F789E02D05C0E88161
:10288000F981008CF18DE02DCE010995182F813052
:1028900049F40E9482296BA77CA78DA79EA71B8F56
:1028A0001C8F1D8F812FDF91CF911F9108950F9362
:1028B0001F93DC018B01FB011082ED91FC910190D3
:1028C000F081E02D0995B8014AE050E00E940A022B
:1028D0001F910F910895CB0169ED70E00E94C00136
:1028E00008951F93CF93DF93EC0161E041E00E94D4
:1028F000011ECE0162E070E00E94F1178130910567
:1029000069F08130910520F0029771F010E01FC04E
:10291000E881F9810488F589E02D0BC0E881F9810F
:102920000688F789E02D05C0E881F981008CF18DDA
:10293000E02DCE010995182F813049F40E9482299B
:102940006BA77CA78DA79EA71B8F1C8F1D8F812F28
:10295000DF91CF911F9108950F931F938C01FC017C
:1029600084890E94312A9595879595958795F801D8
:10297000818B90E01F910F9108950F931F938C010D
:1029800083EE91E0F8019183808383E0848317864E
:10299000168EC80162E070E040E050E00E94F91736
:1029A000C80160E070E040E050E00E94F917C80103
:1029B00061E070E040E050E00E94F917F801108AF1
:1029C0008EE0848B84EF91E092A381A386E990E06E
:1029D00090A3878F178A81E0808F118E1F910F91AE
:1029E00008950F931F93DC018B01FB011082ED9181
:1029F000FC910190F081E02D0995B8014AE050E08A
:102A00000E940A021F910F910895CB0163EE70E0BE
:102A10000E94C0010895FC018089E82FF0E0EE0FCC
:102A2000FF1FE152FF4F25913491CB01B9010E9464
:102A3000C00108951F93CF93DF93EC0161E041E063
:102A40000E94011EE881F9810488F589E02DCE01FC
:102A50000995182F813069F40E9482296BA77CA701
:102A60008DA79EA76FA778AB89AB9AAB1B8F1C8FE6
:102A70001D8F812FDF91CF911F9108950F931F9389
:102A80008C01FC0184890E94312A95958795959542
:102A90008795F801818B90E01F910F9108950F9316
:102AA0001F938C0183E092E0F8019183808382E0A0
:102AB00084831786168EC80162E070E042E050E021
:102AC0000E94F917C80160E070E040E050E00E9409
:102AD000F917C80161E070E040E050E00E94F9178A
:102AE00021E0F801208B85E1848B84EF91E092A3B3
:102AF00081A386E990E090A3878F178A208F118E9B
:102B00001F910F910895FC018089E82FF0E0EE0FEE
:102B1000FF1FE850FF4F25913491CB01B9010E946E
:102B2000C0010895CB016EEF70E00E94C0010895CE
:102B3000EF92FF920F931F93DF93CF9300D0CDB707
:102B4000DEB78C017B019A01FC018089813031F074
:102B50008130E0F0823009F05CC039C0C80161E02A
:102B600070E040EF52ED0E940118C80161E070E092
:102B70000E94F117892B31F4F7011082C70161E13E
:102B800071E017C0C80161E070E019C0C80160E0E1
:102B900070E040EF52ED0E940118C80160E070E063
:102BA0000E94F117892B41F4F7011082C70165E1FA
:102BB00071E00E94C7012DC0C80160E070E00E9472
:102BC000F117BC01C801A7010E949D1B22C0C801CA
:102BD00062E070E040E553EC0E940118C80162E039
:102BE00070E00E94F117892B51F4F701108283EFF6
:102BF00089831A82C701BE016F5F7F4FDACFC80198
:102C000062E070E00E94F117B7014AE050E00E94D4
:102C10002B020F900F90CF91DF911F910F91FF909A
:102C2000EF900895EF92FF920F931F93DF93CF934E
:102C300000D0CDB7DEB78C017B019A01FC01808901
:102C4000813031F08130E0F0823009F05CC039C071
:102C5000C80161E070E040EF52ED0E941918C80110
:102C600061E070E00E94F117892B31F4F7011082C6
:102C7000C70161E171E017C0C80161E070E019C0EF
:102C8000C80160E070E040EF52ED0E941918C801E1
:102C900060E070E00E94F117892B41F4F701108287
:102CA000C70165E171E00E94C7012DC0C80160E065
:102CB00070E00E94F117BC01C801A7010E949D1B92
:102CC00022C0C80162E070E040E553EC0E94191890
:102CD000C80162E070E00E94F117892B51F4F701FE
:102CE000108283EF89831A82C701BE016F5F7F4F15
:102CF000DACFC80162E070E00E94F117B7014AE044
:102D000050E00E942B020F900F90CF91DF911F9106
:102D10000F91FF90EF90089580E00E94462B01975D
:102D200031F481E00E94462B20E0019709F021E078
:102D3000822F0895EF92FF920F931F93CF93DF930B
:102D4000EC018A899B89892B31F40E9482296FA723
:102D500078AB89AB9AAB0E9482297B018C018FA54D
:102D600098A9A9A9BAA9E81AF90A0A0B1B0BCE015E
:102D700060E070E00E94F117A0E0B0E0BC01CD017E
:102D800028EE33E040E050E00E94302F9B01AC0180
:102D90002E193F09400B510BB901CA01DF91CF91A8
:102DA0001F910F91FF90EF9008950E949A1628EEC0
:102DB00033E040E050E00E94822FC9010895EF9275
:102DC000FF920F931F938C017B010E94D516BC01CB
:102DD000C801A7010E949D1B1F910F91FF90EF90CA
:102DE0000895CF93DF93EC018A899B89892B11F099
:102DF00080E018C08BA59CA5ADA5BEA50097A10538
:102E0000B10531F40E9482296BA77CA78DA79EA7EC
:102E100081E08B8F8C8F8D8FCE0161E040E00E942E
:102E2000011E81E0DF91CF910895AF92BF92CF92C2
:102E3000DF92EF92FF920F931F93CF93DF93EC01FA
:102E4000B82EAD2E60E070E00E94F117892B49F496
:102E5000CE0160E070E041E050E021E030E00E940F
:102E600001180A891B898B2D9A2D62E070E00E945F
:102E7000F1170817190788F08B2D9A2D62E070E082
:102E80000E94F117892B49F08D89882331F48E89AE
:102E9000882319F481E08E8F34C0CE010E949A16E7
:102EA0006B017C01CE010E94F1168130D1F18B2D96
:102EB0009A2D60E040E00E94011ECE010E948C1617
:102EC0008130C1F48D898823A9F48E89882391F4F7
:102ED0008CA99DA964E070E00E94B20BBE01625E05
:102EE0007F4F0A891B898CA99DA9A70196010E9481
:102EF000850C09C0F7FC07C0C114D104E104F1043A
:102F000011F080E00EC00E9482296BA77CA78DA7DC
:102F10009EA76FA778AB89AB9AAB81E08B8F8C8F24
:102F20008D8FDF91CF911F910F91FF90EF90DF90E8
:102F3000CF90BF90AF9008950F931F938C0183E2C1
:102F400092E0F8019183808383E084831786168E54
:102F5000C80160E070E040E050E00E94F917C8014D
:102F600061E070E040E050E00E94F917C80162E0C3
:102F700070E040E050E00E94F917F80113A614A693
:102F800015A616A6108A84EF91E092A381A386E984
:102F900090E090A3878F178A81E0808F118E1F9118
:102FA0000F9108959C01F999FECF32BD21BDF89A89
:102FB00080B508959C01F999FECF1FBA32BD21BD9D
:102FC00060BD0FB6F894FA9AF99A0FBE0895FC0105
:102FD000808964818F5F90E070E00E945B2F808B1E
:102FE0000895FB01EE0FFF1FE80FF91F8581968101
:102FF0000895FB01EE0FFF1FE80FF91F568345836D
:103000000895DC01FB01EE0FFF1FEA0FFB1F858116
:103010009681280F391F4217530710F420E030E043
:10302000660F771FA60FB71F16963C932E93159722
:103030000895FB01EE0FFF1FE80FF91F85819681B0
:10304000821B930B4817590708F4CA01968385839E
:103050000895CF93DF93EC01E881F981008CF18D25
:10306000E02D0995813011F040E009C040E08989E8
:1030700090E02D813E812817390708F441E0842F24
:10308000DF91CF910895CF93DF93EC01E881F9812F
:10309000008CF18DE02D0995813011F040E009C0E0
:1030A00040E0898990E02D813E812817390708F09A
:1030B00041E0842FDF91CF910895FC01138A128A99
:1030C00047A750AB61AB72AB13A614A615A616A604
:1030D000168E0895FC01868D08959C01CB01B901DF
:1030E0002AED37E10E94EE010895EF92FF920F93CF
:1030F0001F93DF93CF9300D0CDB7DEB7FC010281E1
:10310000138174E0000F111F7A95E1F71A8219827A
:103110007E010894E11CF11CC701B80141E050E0B8
:103120000E946D181A8219820F5F1F4FC701B801E4
:1031300042E050E00E946D181A8219820E5F1F4F04
:10314000C701B80142E050E00E946D181A8219824E
:103150000E5F1F4FC701B80142E050E00E946D189A
:103160001A8219820E5F1F4FC701B80142E050E07A
:103170000E946D181A8219820E5F1F4FC701B80195
:1031800042E050E00E946D181A8219820E5F1F4FB4
:10319000C701B80141E050E00E946D1881E090E065
:1031A0009A8389830F5F1F4FC701B80141E050E048
:1031B0000E946D181A8219820F5F1F4FC701B80154
:1031C00041E050E00E946D188EE190E09A8389837F
:1031D0000F5F1F4FC701B80141E050E00E946D181A
:1031E0000F900F90CF91DF911F910F91FF90EF9073
:1031F0000895CF92DF92EF92FF920F931F93DF9388
:10320000CF930F92CDB7DEB77C01FC010281138111
:10321000A4E0000F111FAA95E1F787898983055F54
:103220001F4F6E010894C11CD11CC601B80141E0BA
:1032300050E00E946D18F701808D89830F5F1F4F4A
:10324000C601B80141E050E00E946D18F701818D80
:1032500089830F5F1F4FC601B80141E050E00E9413
:103260006D18F701828D89830F5F1F4FC601B8016A
:1032700041E050E00E946D180F90CF91DF911F91B7
:103280000F91FF90EF90DF90CF900895CF92DF9253
:10329000EF92FF920F931F93DF93CF9300D0CDB7A0
:1032A000DEB77C01FC0102811381B4E0000F111F25
:1032B000BA95E1F7808989836E010894C11CD11CFD
:1032C000C601B80141E050E00E946D18F701858108
:1032D00096819A8389830F5F1F4FC601B80142E030
:1032E00050E00E946D18F701878190859A83898349
:1032F0000E5F1F4FC601B80142E050E00E946D18FA
:10330000F701818592859A8389830E5F1F4FC601DD
:10331000B80142E050E00E946D18F7018385948562
:103320009A8389830E5F1F4FC601B80142E050E0C7
:103330000E946D18F701858596859A8389830E5FB3
:103340001F4FC601B80142E050E00E946D180F9077
:103350000F90CF91DF911F910F91FF90EF90DF9031
:10336000CF9008950F931F93CF93DF93EC010A81C1
:103370001B8184E0000F111F8A95E1F7B801655F9A
:103380007F4FCE01479641E050E022ED37E10E94A9
:10339000D2018F898F3F09F41F8AB801645F7F4F84
:1033A000CE01489641E050E022ED37E10E94D20183
:1033B000888D8F3F11F481E0888FB801635F7F4F64
:1033C000CE01499641E050E022ED37E10E94D20162
:1033D000898D8F3F09F4198E025F1F4FCE014A96E7
:1033E000B80141E050E022ED37E10E94D2018A8D20
:1033F0008F3F11F48EE18A8FDF91CF911F910F9152
:1034000008950F931F93CF93DF938C01FC01C2812A
:10341000D38194E0CC0FDD1F9A95E1F7C801409667
:10342000BE0141E050E022ED37E10E94D201F801F7
:103430008089863008F0108A2196C8010596BE0161
:1034400042E050E022ED37E10E94D2012296C8010D
:103450000796BE0142E050E022ED37E10E94D20122
:103460002296C8010996BE0142E050E022ED37E104
:103470000E94D2012296C8010B96BE0142E050E0A4
:1034800022ED37E10E94D2012296C8010D96BE01BD
:1034900042E050E022ED37E10E94D201DF91CF916E
:1034A0001F910F9108959B01DC011996ED91FC91FC
:1034B0001A97EE0FFF1FEA5DFE4F65917491C901E7
:1034C0000E94C0010895FC018089E82FF0E0EE0F12
:1034D000FF1FE05EFE4F25913491CB01B9010E94A0
:1034E000C0010895EF92FF920F931F93DF93CF9344
:1034F000CDB7DEB7CA57D0400FB6F894DEBF0FBEC7
:10350000CDBF63E3E62EF12CE80EF91EC7014FE7AD
:1035100050E86CED71E620E230E00E94A51FDE016C
:103520001796EBEAF2E08EE001900D928150E1F700
:103530008E01095F1F4FC701B80147E050E026E246
:1035400030E00E94211F6FE370E080E090E00E9475
:103550009029C701B80147E050E026E230E00E9420
:10356000211F6FE370E080E090E00E949029DE016F
:103570005596EBE8F2E080E201900D928150E1F780
:10358000C701BE016B5E7F4F40E150E026E230E0B4
:103590000E94211FDE01D596E5E4F2E086E4019069
:1035A0000D928150E1F7C701BE016B5C7F4F40E196
:1035B00050E020E230E00E94211FDE011196EFE38F
:1035C000F2E086E001900D928150E1F7C701BE0163
:1035D0006F5F7F4F44E050E021E230E00E94211F06
:1035E00000E010E0C7014FE85BE46BE070E024E12D
:1035F00030E00E94561F64E670E080E090E00E9498
:1036000090290F5F1F4F0330110561F7C7014EE787
:1036100051E86CE073ED20E230E00E94A51FC6582F
:10362000DF4F0FB6F894DEBF0FBECDBFCF91DF9155
:103630001F910F91FF90EF900895CF93DF93EC01CE
:10364000898D813091F48D8D813081F41D8E2F9A7A
:10365000CE010E94721A2F98888D882339F48A89A6
:103660009B8901969B8B8A8B01C01D8EDF91CF9128
:103670000895CF92DF92EF92FF920F931F93DF9303
:10368000CF9300D000D00F92CDB7DEB78B016A0187
:10369000FA011082CB0168EE73E00E945B2FCB0130
:1036A0007E010894E11CF11CB7014AE050E00E9441
:1036B0002B02C601B7010E94C701C60167E171E094
:1036C0000E94C701C80168EE73E00E945B2F8C0165
:1036D0008436910568F4C60169E171E00E94C70172
:1036E0000A30110528F4C60169E171E00E94C701A2
:1036F000C8018E010F5F1F4FB8014AE050E00E94E1
:103700002B02C601B8010E94C701C6016BE171E03E
:103710000E94C701C60160E070E00E94C7010F90DF
:103720000F900F900F900F90CF91DF911F910F91FD
:10373000FF90EF90DF90CF900895CF92DF92EF92BD
:10374000FF920F931F93DF93CF9300D000D00F927F
:10375000CDB7DEB78B016A01FA011082CB016CE3B1
:1037600070E00E945B2FCB017E010894E11CF11CEC
:10377000B7014AE050E00E942B02C601B7010E9447
:10378000C701C6016FE171E00E94C701C8016CE387
:1037900070E00E945B2F8C018A30910528F4C601ED
:1037A00069E171E00E94C701C8018E010F5F1F4FE0
:1037B000B8014AE050E00E942B02C601B8010E9405
:1037C000C701C60160E070E00E94C7010F900F9032
:1037D0000F900F900F90CF91DF911F910F91FF905D
:1037E000EF90DF90CF900895CF92DF92EF92FF920B
:1037F0000F931F93DF93CF9300D000D00F92CDB7DC
:10380000DEB7DC018B017A01FA011082ED91FC91A7
:103810000190F081E02D09956C01C8018E010F5FC8
:103820001F4FB8014AE050E00E942B02C701B801C7
:103830000E94C701C70161E271E00E94C701C60191
:10384000B8014AE050E00E940A02C701B8010E9494
:10385000C701C70160E070E00E94C7010F900F90A0
:103860000F900F900F90CF91DF911F910F91FF90CC
:10387000EF90DF90CF900895CF93DF93DC01EB01C1
:1038800050968C9150978130F1F08130D8F1823090
:1038900009F04CC019968D919C911A97840F951F31
:1038A0008330910510F080E090E01A969C938E93FF
:1038B0001997ED91FC911197028CF38DE02DCD01BC
:1038C000BE01099533C017966D917C911897640FCE
:1038D000751F87E26031780710F060E070E018969D
:1038E0007C936E9317976115710539F41882CE0198
:1038F00063E271E00E94C70119C0CD01AE010E94D0
:10390000391B14C015966D917C911697640F751F25
:103910006F3F710519F010F060E070E016967C932F
:103920006E931597CD01AE010E94F41BDF91CF91EC
:103930000895CF93DF93DC01EB0150968C91509763
:103940008130F1F08130D8F1823009F04CC0199605
:103950008D919C911A97841B950B8330910510F0E3
:1039600082E090E01A969C938E931997ED91FC91CA
:103970001197028CF38DE02DCD01BE01099533C066
:1039800017966D917C911897641B750B87E26031D7
:10399000780710F06FE077E218967C936E93179794
:1039A0006115710539F41882CE0163E271E00E945D
:1039B000C70119C0CD01AE010E94391B14C0159674
:1039C0006D917C911697641B750B6F3F710519F013
:1039D00010F06FEF70E016967C936E931597CD0103
:1039E000AE010E94F41BDF91CF9108950F931F93B6
:1039F000CF93DF93EC010D811E818C890E94312AC7
:103A00009595879595958795898B20E090E0081787
:103A100019070CF421E08F85281711F480E002C00B
:103A20002F8781E0DF91CF911F910F910895CF9261
:103A3000DF92EF92FF920F931F93CF93DF93EC01EE
:103A40006A018C8D813041F08B8D813029F08D8D14
:103A5000813011F080E023C0662329F00E94822982
:103A60002BA53CA515C00E94822928EE33E040E03A
:103A700050E00E94822F79018A016BA57CA58DA55B
:103A80009EA528EE33E040E050E00E94822FB7016F
:103A9000621B730B80E0C616D7060CF481E0DF9141
:103AA000CF911F910F91FF90EF90DF90CF900895ED
:103AB000CF93DF93EC018E89813021F51C8E61302C
:103AC000A9F00E9482292BA13CA14DA15EA1621BFD
:103AD000730B840B950B2F8D38A1442737FD409530
:103AE000542F261737074807590760F48CE061E028
:103AF0000E94F22A0E9482296BA37CA38DA39EA31D
:103B00001E8A2F98DF91CF910895CF93DF93EC0118
:103B10008D89813021F51B8E6130A9F00E948229A8
:103B20002FA138A549A55AA5621B730B840B950BD1
:103B300029A13AA1442737FD4095542F261737076E
:103B40004807590760F48DE061E00E94F22A0E9464
:103B500082296FA378A789A79AA71D8A2F98DF913A
:103B6000CF9108951F93CF93DF93EC01888D81301F
:103B7000B1F41C8D1130A1F41C8E8CE060E00E9429
:103B8000F22A0E9482296BA37CA38DA39EA32F9A65
:103B90001E8B8A899B8901969B8B8A8B01C01C8E08
:103BA000DF91CF911F9108951F93CF93DF93EC0185
:103BB0008F89882319F48F8D98A102C084EF91E03A
:103BC0009AA389A31B8D1130C1F41B8E8DE060E098
:103BD0000E94F22A0E9482296FA378A789A79AA738
:103BE0002F9A1D8B888D882341F4898D882329F491
:103BF0008A899B8901969B8B8A8BDF91CF911F913C
:103C000008950F931F93CF93DF93EC01162F042F8A
:103C100060E00E94851DCE0160E00E94581D1123C6
:103C200041F04F815885CE01602F0E94171D8130D1
:103C300009F5CE010E94D41D8F89882361F049A126
:103C40005AA18F8D98A1481B590BCE0161E00E94AB
:103C5000171D813079F4CE010E94B21D888D882312
:103C600019F08E89882331F48D89882319F4CE01C7
:103C70000E941D1BDF91CF911F910F9108951F92FC
:103C80000F920FB60F9211242F933F934F935F9390
:103C90006F937F938F939F93AF93BF93EF93FF9314
:103CA00083ED8093B200809108050E94462B482F37
:103CB00080910B0590910C05019690930C058093D3
:103CC0000B058091A5058C3418F085E080930905DB
:103CD000809109058330D1F0843020F4823009F0DE
:103CE00059C006C0843071F1853009F053C04CC012
:103CF000442309F04FC080910B0590910C05843648
:103D0000910508F443C01092A5051EC0413009F08A
:103D100041C08091A505E82FF0E020910B0530917E
:103D20000C05EE0FFF1FE85FFA4F368325838F5F88
:103D30008093A50510920C0510920B0584E08093EA
:103D4000090528C04423B9F48091A505E82FF0E0C7
:103D500020910B0530910C05EE0FFF1FE85FFA4F25
:103D6000368325838F5F8093A50510920C051092F2
:103D70000B0583E0E4CF80910B0590910C0585360F
:103D8000910540F085E0DBCF442321F410920C052F
:103D900010920B0580910A05882329F0442311F421
:103DA0002D9A01C02D98FF91EF91BF91AF919F91F6
:103DB0008F917F916F915F914F913F912F910F90D4
:103DC0000FBE0F901F901895EF92FF920F931F93C5
:103DD0007B01E0E7F0E080818E7F80838BE061E013
:103DE0000E94B32A8BE060E00E94F22A81E0809377
:103DF000B00089E08093B1000027F7FC0095102FF8
:103E000060ED77E080E090E0A80197010E94A42F88
:103E10002093B3001F910F91FF90EF900895CB0175
:103E2000E0EBF0E020812F7B20830E94E9290895B8
:103E3000CB01E0EBF0E02081206420830E94E9299F
:103E40000895CF92DF92EF92FF920F931F93CF933B
:103E5000DF937C01162F072F6A01B9010E94E41E2F
:103E6000212F302FC901EC0100E010E00EC0688165
:103E7000798100FF04C0C7010E940F1F03C0C70162
:103E80000E94181F0F5F1F4F22960C151D057CF313
:103E9000C70160E070E00E940F1FDF91CF911F917A
:103EA0000F91FF90EF90DF90CF900895AF92BF9267
:103EB000CF92DF92EF92FF920F931F93CF93DF93F6
:103EC000EC017A018B01590168E270E00E94E41E66
:103ED000CE0160E679E00E94181FCE0168E572E02D
:103EE0000E940F1F80E290E08A199B0904C0EE0C2B
:103EF000FF1C001F111F8A95D2F7CC24DD2417C0A8
:103F000017FF04C0CE0160EB74E003C0CE0168E58A
:103F100072E00E94181FCE0168E572E00E940F1F38
:103F2000EE0CFF1C001F111F0894C11CD11CCA14E9
:103F3000DB0434F3DF91CF911F910F91FF90EF904D
:103F4000DF90CF90BF90AF900895AF92BF92CF9285
:103F5000DF92EF92FF920F931F93CF93DF93EC01C9
:103F60007A018B01590166E270E00E94E41ECE01E5
:103F700068E273E20E94181FCE0164E971E10E94B9
:103F80000F1FCC24DD241CC017FF09C0CE0160E345
:103F900072E00E94181FCE0160E476E008C0CE01F6
:103FA00060E372E00E94181FCE0160E372E00E949D
:103FB0000F1FEE0CFF1C001F111F0894C11CD11C09
:103FC000CA14DB040CF3CE0160E372E00E94181FF8
:103FD000CE0160E070E00E940F1FDF91CF911F9132
:103FE0000F91FF90EF90DF90CF90BF90AF9008952A
:103FF0001F920F920FB60F9211240F900FBE0F90C9
:104000001F9018951F920F920FB60F921124CF9206
:10401000DF92EF92FF920F931F932F933F934F9353
:104020005F936F937F938F939F93AF93BF93EF9320
:10403000FF930E9482296B017C0180E00E94C128CD
:1040400080E069ED75E243E050E00E949E28009117
:10405000A6051091A70581E0F80183AFC701B6015D
:1040600028EE33E040E050E00E94822FF80135AFA7
:1040700024AFFF91EF91BF91AF919F918F917F916D
:104080006F915F914F913F912F911F910F91FF90F1
:10409000EF90DF90CF900F900FBE0F901F9018956C
:1040A0000F931F93CF93DF93EC018B018F898823AC
:1040B00071F5E9A5FAA59789988F452B09F471C088
:1040C000992309F481E0888FE9A5FAA5878BEBA5F0
:1040D000FCA5888D878BEDA5FEA5888D878BEFA528
:1040E000F8A9888D878BE9A9FAA9888D878BEBA918
:1040F000FCA9888D878B55C0882309F082C0F80100
:104100001082C8016AE271E00E94C7017AC0813062
:1041100021F5E9A5FAA5908D988F452B09F441C0AA
:1041200080E0992309F481E0888FE9A5FAA5808FC2
:10413000EBA5FCA5888D808FEDA5FEA5888D808FD1
:10414000EFA5F8A9888D808FE9A9FAA9888D808FBD
:10415000EBA9FCA9888D808F24C0823061F5E9A588
:10416000FAA5918D988F452BE1F080E0992309F411
:1041700081E0888FE9A5FAA5818FEBA5FCA5888D44
:10418000818FEDA5FEA5888D818FEFA5F8A9888D7B
:10419000818FE9A9FAA9888D818FEBA9FCA9888D67
:1041A000818F888D813009F0A7CFF8011082C80176
:1041B00067E271E0A9CF833021F541155105C1F0C7
:1041C0008A8D9B8D840F951F97FF03C090958195D5
:1041D0009F4F6FEF70E00E946F2F682F8A8F9B8F29
:1041E0008AE0792F0E94532AE9A5FAA58A8D828F49
:1041F000F80110828A8D9B8DB8014AE050E00E9440
:104200000A02DF91CF911F910F910895FF920F93B2
:104210001F93DF93CF93CDB7DEB729970FB6F894EE
:10422000DEBF0FBECDBF8C01F62E9A01DC01559684
:10423000EC91BE016F5F7F4FE63080F4F0E0EE0F4F
:10424000FF1FE00FF11FA1A5B2A5ED91FC91119701
:104250000084F185E02DCD01099506C0442755273E
:10426000421B530B0E945020C80160E04F2D0E945A
:104270002B08C801BE016F5F7F4F0E945F2D2996FA
:104280000FB6F894DEBF0FBECDBFCF91DF911F9167
:104290000F91FF900895FF920F931F93DF93CF9399
:1042A000CDB7DEB729970FB6F894DEBF0FBECDBFEE
:1042B0008C01F62EDC015596EC91BE016F5F7F4FAD
:1042C000E63080F4F0E0EE0FFF1FE00FF11FA1A534
:1042D000B2A5ED91FC9111970680F781E02DCD01FB
:1042E000099502C00E945020C80160E04F2D0E9435
:1042F0002B08C801BE016F5F7F4F0E945F2D29967A
:104300000FB6F894DEBF0FBECDBFCF91DF911F91E6
:104310000F91FF900895FC018789E82FF0E0EE0FE0
:10432000FF1FE15AFE4F25913491CB01B9010E9444
:10433000C0010895FF920F931F93DF93CF93CDB7E2
:10434000DEB729970FB6F894DEBF0FBECDBF8C0144
:10435000F62EDC015596EC91BE016F5F7F4FE63083
:1043600080F4F0E0EE0FFF1FE80FF91FA1A5B2A542
:10437000ED91FC9111970484F585E02DCD0109950F
:1043800002C00E948B21C80160E04F2D0E942B08C3
:10439000C801BE016F5F7F4F0E945F2D29960FB647
:1043A000F894DEBF0FBECDBFCF91DF911F910F916B
:1043B000FF900895FF920F931F93DF93CF93CDB794
:1043C000DEB729970FB6F894DEBF0FBECDBF8C01C4
:1043D000F62EDC015596EC91BE016F5F7F4FE63003
:1043E00080F4F0E0EE0FFF1FE80FF91FA1A5B2A5C2
:1043F000ED91FC9111970284F385E02DCD01099593
:1044000005C0CB0167E671E00E94C001C80160E011
:104410004F2D0E942B08C801BE016F5F7F4F0E9485
:104420005F2D29960FB6F894DEBF0FBECDBFCF919A
:10443000DF911F910F91FF900895CF93DF93EC01CF
:1044400080E00E94462B019751F481E00E94462BA8
:10445000019729F41FAE80E0DF91CF91089581E0AC
:104460008FAFFACFCF93DF93EC018EAD8130B9F5EA
:104470001EAE0E94C12880E894E00E94CD04CE01C7
:104480000E941D22882359F1CE010E9423086AEF61
:1044900070E080E090E00E9490298AE060E070E0A7
:1044A0000E94532A85E060E00E94F22A81E160E0E8
:1044B0000E94F22A84E060E00E94F22A86E060E036
:1044C0000E94F22A87E060E00E94F22A88E060E021
:1044D0000E94F22A89E060E00E94F22A2E9ADF917F
:1044E000CF9108958F929F92AF92BF92CF92DF9219
:1044F000EF92FF920F931F93DF93CF93CDB7DEB769
:1045000064970FB6F894DEBF0FBECDBF4C01DC013F
:10451000DE968C91DE97882309F0D9C081E0DE9683
:104520008C930E948229F40167AB70AF81AF92AF88
:104530002E98C4014C9663E070E041E00E944B0B62
:104540006CE271E080E090E00E949029D401DF9657
:104550008C91882309F4BBC0CE01019661E144E04F
:1045600025E006E017E0E12EB8E0CB2EA9E0AA2E68
:104570000E94F909D401ED91FC910480F581E02DB0
:10458000C40168E042E020E00995C4010E941908D6
:1045900080917A00806880937A00F401828D938DF7
:1045A0004E9709F08EC08FE00E94312AD4015B96AD
:1045B0009C938E935A978FE00E94312A9C01F401BC
:1045C000938F828FF3E088319F0744F482E0263690
:1045D00038075CF5213031053CF473C0A4E080302D
:1045E0009A070CF06EC042C000D000D0B9018827F5
:1045F00077FD8095982F2DE330E040E050E0EDB757
:10460000FEB7218332834383548326E232E040E0C5
:1046100050E0F5E6EF2EF2E0FF2E012D112DE0E83F
:10462000AE2EB12CC12CD12C41C000D000D0B9018C
:10463000882777FD8095982F23E230E040E050E016
:10464000EDB7FEB7218332834383548326E632E0FD
:1046500040E050E0B7E1EB2EB3E0FB2E012D112D31
:10466000ACE3AA2EB12CC12CD12C20C000D000D09C
:10467000B901882777FD8095982F21E030E040E050
:1046800050E0EDB7FEB7218332834383548328E1A2
:1046900033E040E050E0FFEFEF2EF3E0FF2E012D7E
:1046A000112DE4E2AE2EB12CC12CD12C0E94622D32
:1046B000D4015B967C936E935A970F900F900F9056
:1046C0000F90F401628D738D8AE00E94532A6496E4
:1046D0000FB6F894DEBF0FBECDBFCF91DF911F9113
:1046E0000F91FF90EF90DF90CF90BF90AF909F9091
:1046F0008F900895CF93DF93EC018EAD813009F058
:1047000038C00E9482292FA938AD49AD5AAD621B2D
:10471000730B840B950B615375478040904048F1B3
:10472000CE010E94322283B7817F846083BF83B72A
:10473000816083BF789480E00E94C12880E068EFA8
:104740007FE142E050E00E949E2883B7816083BFF2
:10475000889583B78E7F83BF83B78E7F83BF80E0CA
:1047600062E070E242E050E00E949E28CE010E948A
:104770007222DF91CF910895CF92DF92EF92FF9254
:104780000F931F93CF93DF936C01FC0186898350B5
:10479000823018F0C0E0D0E027C0613019F50E94E7
:1047A00082297B018C01C6014C960E94890AA801CE
:1047B0009701261B370B480B590BDA01C9018131D0
:1047C00037E2930730E0A30730E0B30758F0895988
:1047D0009A43A040B04018F0CAE0D0E005C0C5E060
:1047E000D0E002C0C1E0D0E084E0F601868BC601D3
:1047F0000E947C08C60160E070E00E949A21C60118
:1048000061E070E0AE010E940621DF91CF911F911F
:104810000F91FF90EF90DF90CF900895CF92DF92AD
:10482000EF92FF920F931F93CF93DF936C01FC01E4
:1048300086898350823018F0C0E0D0E027C0613014
:1048400019F50E9482297B018C01C6014C960E94B9
:10485000890AA8019701261B370B480B590BDA016F
:10486000C901893833E1930730E0A30730E0B3078B
:1048700058F089599A43A040B04018F0CAE0D0E0FF
:1048800005C0C5E0D0E002C0C1E0D0E083E0F601A1
:10489000868BC6010E947C08C60160E070E00E9421
:1048A0009A21C60161E070E0AE010E944B21DF91C8
:1048B000CF911F910F91FF90EF90DF90CF900895CF
:1048C000CF93DF93EC018E8981508230B8F4ED896B
:1048D000E63080F4F0E0EE0FFF1FEC0FFD1FA1A506
:1048E000B2A5ED91FC9111970480F581E02DCD01E9
:1048F000099504C08F898F5F83708F8B82E08E8BC8
:10490000CE010E947C08CE0160E070E00E94DA21B6
:10491000CE0161E070E00E949A21DF91CF9108956D
:10492000CF93DF93EC018E898150823030F48D89F2
:104930008F5F67E00E944F2F9D8B81E08E8BCE01B1
:104940000E947C08CE0160E070E00E94DA21CE0176
:1049500061E070E00E949A21DF91CF910895EF927B
:10496000FF920F931F93DF93CF93CDB7DEB72997B5
:104970000FB6F894DEBF0FBECDBF7C010E94822926
:1049800024E630E040E050E00E94822FD701D59627
:104990008D919C91D697F901E81BF90BE430F10554
:1049A0000CF479C0D6963C932E93D59754968C915F
:1049B000813061F5C7010E941D22882309F06BC078
:1049C000C7010E947C08C70160E070E00E94DA2104
:1049D000D7015596EC91F0E0EE0FFF1FEE0DFF1D95
:1049E000A1A5B2A5ED91FC9111970684F785E02D64
:1049F000CD018E010F5F1F4FB8010995C70160E01F
:104A000041E00E942B08C701B80143C0F701848927
:104A1000882309F040C09689892F8350823080F422
:104A2000C7010E947C08C70160E070E00E949A21E3
:104A3000C70161E070E040E050E00E944B212BC0D4
:104A4000892F8150823070F4C7010E947C08C70111
:104A500060E070E00E94DA21C70161E070E00E942E
:104A60009A2119C09923B9F4C7010E947C08C70193
:104A70006EE271E00E945F2DC70160E041E00E949C
:104A80002B08C70167E371E00E945F2DC70169E34E
:104A900071E00E945F2D29960FB6F894DEBF0FBE1D
:104AA000CDBFCF91DF911F910F91FF90EF900895AF
:104AB000EF92FF920F931F93CF93DF93EC017A0154
:104AC0008B018D89863008F06DC08C8990E0882339
:104AD00009F491E09C8B8C89813071F5C801B70194
:104AE00024E630E040E050E00E94822F3EAB2DAB48
:104AF000ED89F0E0EE0FFF1FEC0FFD1F81A592A5E1
:104B00000E94461989A59AA50E94F918ED89F0E03E
:104B1000EE0FFF1FEC0FFD1FA1A5B2A5ED91FC91BB
:104B200011970088F189E02DCD01B801A701099501
:104B3000CE010E94322236C08C89882399F5ED89F6
:104B4000F0E0EE0FFF1FEC0FFD1F81A592A561E0C5
:104B50000E94851DED89F0E0EE0FFF1FEC0FFD1F99
:104B600081A592A561E00E94581DED89F0E0EE0F4D
:104B7000FF1FEC0FFD1F01A4F2A5E02D81E0868F41
:104B8000CE010E947222CE010E947C08CE0160E01C
:104B900070E00E949A21CE0161E070E040E050E0B8
:104BA0000E944B21DF91CF911F910F91FF90EF90C9
:104BB00008951F920F920FB60F921124EF92FF9259
:104BC0000F931F932F933F934F935F936F937F9315
:104BD0008F939F93AF93BF93EF93FF930E9482298C
:104BE0007B018C0180E00E94C12880E062E070E2DD
:104BF00042E050E00E949E28E091A605F091A705B2
:104C000083AD813029F4CF01B801A7010E94582556
:104C1000E091A605F091A70513AEFF91EF91BF912A
:104C2000AF919F918F917F916F915F914F913F9144
:104C30002F911F910F91FF90EF900F900FBE0F904B
:104C40001F9018950F931F93CF93DF93EC018BADBB
:104C5000813089F50E9482290CAD1DAD28EE33E02C
:104C600040E050E00E94822F201B310B2B30310599
:104C700094F11BAECE010E947C08CE0160E040E0C2
:104C80000E942B08CE0160E471E00E945F2DCE01EE
:104C900060E041E00E942B08CE0166E471E00E94D2
:104CA0005F2DA99600E0899199910E9475180F5F78
:104CB0000630C9F710C08BAD882369F48C89813028
:104CC00051F480E00E94C12880E062E070E242E09E
:104CD00050E00E949E28DF91CF911F910F9108957F
:104CE000CF93DF93EC018C898130C9F4ED89F0E03A
:104CF000EE0FFF1FEC0FFD1FA1A5B2A5ED91FC91DA
:104D000011970288F389E02DCD010995813039F49E
:104D10000E948229AB01BC01CE010E945825CE0120
:104D20000E942226DF91CF910895AF92BF92DF9229
:104D3000EF92FF920F931F93DF93CF930F92CDB714
:104D4000DEB78C010E947026C8010E94AF24ECE1FE
:104D5000EE2EF12CE00EF11EC7010E94CA0A81302E
:104D600029F01982DD24AA24BB2408C0C7010E94AF
:104D7000910A5C0181E08983DD24D394C7010E94FC
:104D8000860A813029F4C7010E94320B5C0103C0FE
:104D9000E981E13071F50E948229F80167AB70AFBB
:104DA00081AF92AFF3E0AF16B104B1F084E0A81682
:104DB000B1042CF4E2E0AE16B104D9F409C0F5E078
:104DC000AF16B10469F086E0A816B10491F40DC0E5
:104DD000C8010E9490240DC0C8010E94602409C02F
:104DE000C8016D2D0E94BC2304C0C8016D2D0E9416
:104DF0000E24C8010E941D22813019F4C8010E94AE
:104E00007A230F90CF91DF911F910F91FF90EF9038
:104E1000DF90BF90AF900895AF92BF92CF92DF9294
:104E2000EF92FF920F931F93CF93DF93EC018B01CF
:104E300080E060E00E94B32A81E060E00E94B32A33
:104E400080E060E00E94F22A81E060E00E94F22AA5
:104E500083E00E942E2AA9E2EA2EF12CEC0EFD1E20
:104E6000D70120E030E0F801E20FF31F808191814B
:104E70008D939D932E5F3F4F2C303105A1F789A56F
:104E80009AA50E94B219E9A5FAA5B788C08CD18C61
:104E9000828D8A8F1B8E00E010E0D701ED91FC918E
:104EA00013830283CF010E94011AD701ED91FC9177
:104EB0001197B78AED91FC911197C08EED91FD91FC
:104EC0007D01D18E0F5F1F4F0630110531F786E04F
:104ED000898F1F8A1C8A1BAE1D8A82E060E00E94B7
:104EE000B32A82E061E00E94F22A80E062E070E290
:104EF00042E050E00E949E288DE061E00E94B32ACB
:104F00008CE061E00E94B32A8DE061E00E94F22A09
:104F10008CE061E00E94F22A279A269A1EAECE010A
:104F20000E9472221FAA18AE19AE1AAECE014C967C
:104F300063E070E041E00E944B0B80918100887F2C
:104F4000816080938100CE010E941D22813009F092
:104F500099C080917A00806880937A008A8D9B8DB9
:104F60004E9709F08BC08FE00E94312A9B8F8A8F69
:104F70008FE00E94312A9C019B8F8A8FB3E0883199
:104F80009B0744F4E2E086369E076CF5813091057C
:104F90003CF474C0F4E080309F070CF06FC044C054
:104FA00000D000D0B901882777FD8095982F2DE398
:104FB00030E040E050E0ADB7BEB711962D933D9381
:104FC0004D935C93149726E232E040E050E0F5E622
:104FD000EF2EF2E0FF2E012D112DE0E8AE2EB12CC8
:104FE000C12CD12C43C000D000D0B901882777FD57
:104FF0008095982F23E230E040E050E0EDB7FEB717
:10500000218332834383548326E632E040E050E03C
:1050100017E1E12E13E0F12E012D112DBCE3AB2E93
:10502000B12CC12CD12C22C000D000D0B9018827CE
:1050300077FD8095982F21E030E040E050E0ADB75B
:10504000BEB711962D933D934D935C93149728E131
:1050500033E040E050E0AFEFEA2EA3E0FA2E012D5E
:10506000112DF4E2AF2EB12CC12CD12C0E94622D57
:105070007B8F6A8F0F900F900F900F906A8D7B8DB2
:105080008AE007C08EE190E09B8F8A8F8AE06EE114
:1050900070E00E94532AE881F9810480F581E02DB7
:1050A000CE0168E042E020E00995CE016EE271E0B9
:1050B0000E945F2DCE0160E041E00E942B08CE01EE
:1050C00067E371E00E945F2DCE0169E371E00E9409
:1050D0005F2D7894DF91CF911F910F91FF90EF900A
:1050E000DF90CF90BF90AF9008958F929F92AF9234
:1050F000CF92EF920F934C0161E144E025E006E08E
:1051000057E0E52E38E0C32EB9E0AB2E0E943D0AF1
:105110008DEB92E0F40191838083C4014C960E9450
:10512000810A9092A7058092A605F401148A0F9136
:10513000EF90CF90AF909F908F900895823000F5C0
:10514000E82FF0E0EE0FFF1FE855FA4F7183608300
:10515000882319F08130A1F408C0809169008C7F08
:10516000842B80936900E89A089580916900440F28
:10517000551F440F551F837F842B80936900E99A44
:105180000895823080F4882319F0813021F402C020
:10519000E89801C0E998E82FF0E0EE0FFF1FE8550E
:1051A000FA4F1182108208951F920F920FB60F923C
:1051B00011242F933F934F935F936F937F938F931C
:1051C0009F93AF93BF93EF93FF938091A805909126
:1051D000A905892B29F0E091A805F091A905099569
:1051E000FF91EF91BF91AF919F918F917F916F91BF
:1051F0005F914F913F912F910F900FBE0F901F9095
:1052000018951F920F920FB60F9211242F933F9370
:105210004F935F936F937F938F939F93AF93BF93BE
:10522000EF93FF938091AA059091AB05892B29F00C
:10523000E091AA05F091AB050995FF91EF91BF911F
:10524000AF919F918F917F916F915F914F913F911E
:105250002F910F900FBE0F901F9018951F920F92D5
:105260000FB60F9211242F933F934F935F936F9339
:105270007F938F939F93AF93BF932091B00530910D
:10528000B1054091B2055091B3057091B405DA01B2
:10529000C9010296A11DB11D672F6A5F6D3730F0FD
:1052A0006D57DA01C9010396A11DB11D6093B405C4
:1052B0008093B0059093B105A093B205B093B30568
:1052C0008091AC059091AD05A091AE05B091AF0570
:1052D0000196A11DB11D8093AC059093AD05A093DF
:1052E000AE05B093AF05BF91AF919F918F917F9124
:1052F0006F915F914F913F912F910F900FBE0F9043
:105300001F9018958FB7F8942091B0053091B10592
:105310004091B2055091B3058FBFB901CA010895FC
:105320009B01AC017FB7F8948091AC059091AD05DD
:10533000A091AE05B091AF0566B5A89B05C06F3FC3
:1053400019F00196A11DB11D7FBFBA2FA92F982F6B
:105350008827860F911DA11DB11D63E0880F991F3D
:10536000AA1FBB1F6A95D1F7BC012DC0FFB7F894E7
:105370008091AC059091AD05A091AE05B091AF05BF
:10538000E6B5A89B05C0EF3F19F00196A11DB11D20
:10539000FFBFBA2FA92F982F88278E0F911DA11D0F
:1053A000B11DE3E0880F991FAA1FBB1FEA95D1F733
:1053B000861B970B885E9340C8F2215030404040D6
:1053C000504068517C4F211531054105510571F65A
:1053D0000895019739F0019729F0880F991F0197D7
:1053E0000197F1F70895789484B5826084BD84B5FF
:1053F000816084BD85B5826085BD85B5816085BDD0
:10540000EEE6F0E0808181608083E1E8F0E01082E8
:10541000808182608083808181608083E0E8F0E029
:10542000808181608083E1EBF0E080818460808313
:10543000E0EBF0E0808181608083EAE7F0E080814A
:1054400084608083808182608083808181608083AA
:105450008081806880831092C100089580934D01FF
:105460000895982F8E3008F09E50977080914D01CE
:105470008295880F880F807C892B80937C00809197
:105480007A00806480937A0080917A0086FDFCCF58
:105490002091780040917900942F80E030E0282B13
:1054A000392BC90108951F93CF93DF93182FEB0178
:1054B00061E00E94B32A209709F44AC0CF3FD1058A
:1054C00009F449C0E12FF0E0EC52FE4F84918330A3
:1054D000C1F0843028F4813051F08230B1F50CC035
:1054E000863019F1873049F1843079F514C084B5DC
:1054F000806884BDC7BD33C084B5806284BDC8BD2B
:105500002EC080918000806880938000D0938900B5
:10551000C093880024C080918000806280938000C6
:10552000D0938B00C0938A001AC08091B00080682D
:105530008093B000C093B30012C08091B00080622D
:105540008093B000C093B4000AC0C038D1051CF4E9
:10555000812F60E002C0812F61E00E94F22ADF917A
:10556000CF911F910895CF93DF93482F50E0CA0148
:1055700080549E4FFC01349144555E4FFA01849152
:10558000882369F190E0880F991FFC01E257FE4FD4
:10559000A591B491FC01E856FE4FC591D4916623C4
:1055A00051F42FB7F8948C91932F909589238C9375
:1055B000888189230BC0623061F42FB7F8948C91F5
:1055C000932F909589238C938881832B88832FBF79
:1055D00006C09FB7F8948C91832B8C939FBFDF916B
:1055E000CF910895482F50E0CA018C529E4FFC0184
:1055F0002491CA0180549E4FFC01949144555E4F02
:10560000FA013491332309F440C0222351F12330AD
:1056100071F0243028F42130A1F0223011F514C0AB
:105620002630B1F02730C1F02430D9F404C0809185
:1056300080008F7703C0809180008F7D80938000F1
:1056400010C084B58F7702C084B58F7D84BD09C03A
:105650008091B0008F7703C08091B0008F7D8093E0
:10566000B000E32FF0E0EE0FFF1FE856FE4FA591CC
:10567000B4912FB7F894662321F48C9190958923E7
:1056800002C08C91892B8C932FBF0895682F70E0F6
:10569000CB018C529E4FFC012491CB0180549E4F34
:1056A000FC01449164557E4FFB019491992319F4B8
:1056B00020E030E03CC0222351F1233071F024304F
:1056C00028F42130A1F0223011F514C02630B1F0B9
:1056D0002730C1F02430D9F404C0809180008F7746
:1056E00003C0809180008F7D8093800010C084B5BE
:1056F0008F7702C084B58F7D84BD09C08091B000D2
:105700008F7703C08091B0008F7D8093B000892F88
:1057100090E0880F991F8E559E4FFC01A591B49182
:105720008C9120E030E0842311F021E030E0C901C9
:10573000089508951F920F920FB60F9211242F9380
:105740003F934F938F939F93EF93FF934091C600A6
:105750002091F5053091F6052F5F3F4F2F73307084
:105760008091F7059091F8052817390759F0E091D5
:10577000F505F091F605EB54FA4F40833093F605AA
:105780002093F505FF91EF919F918F914F913F915C
:105790002F910F900FBE0F901F901895E091490622
:1057A000F0914A06E05CFF4F819191912081318117
:1057B000821B930B8F739070892B11F00E94992B91
:1057C00008951F920F920FB60F9211242F933F93BB
:1057D0008F939F93EF93FF932091390630913A0670
:1057E00080913B0690913C062817390731F480914F
:1057F000C1008F7D8093C10014C0E0913B06F09101
:105800003C06E750FA4F208180913B0690913C0680
:1058100001968F73907090933C0680933B06209383
:10582000C600FF91EF919F918F913F912F910F9023
:105830000FBE0F901F901895DC011C96ED91FC9106
:105840001D97E05CFF4F2191319180819181281B50
:10585000390B2F733070C9010895DC011C96ED914E
:10586000FC911D97E05CFF4F20813181E054F040B6
:10587000DF01AE5BBF4F8D919C91119728173907BF
:1058800019F42FEF3FEF07C08D919C91E80FF91F9E
:105890008081282F30E0C9010895DC011C96ED912C
:1058A000FC911D97E05CFF4F20813181E054F04076
:1058B000DF01AE5BBF4F8D919C911197281739077F
:1058C00019F42FEF3FEF10C08D919C911197E80FC5
:1058D000F91F20818D919C91119701968F73907083
:1058E00011969C938E9330E0C9010895FC01868542
:1058F0009785DC01A05CBF4FFC01EE5BFF4F2D9153
:105900003C9111978081918128173907C1F708953B
:10591000CF93DF93EC01EE85FF85E05CFF4F2081A4
:105920003181E054F0402F5F3F4F2F733070DF0123
:10593000AE5BBF4F8D919C91119728173907D1F31A
:10594000E05CFF4F80819181E054F040E80FF91F47
:105950006083EE85FF85E05CFF4F31832083EE8915
:10596000FF89208181E090E00D8C02C0880F991F93
:105970000A94E2F7282B208381E090E0DF91CF9119
:1059800008951092400610923F0688EE93E0A0E042
:10599000B0E08093410690934206A0934306B093F3
:1059A000440689EC92E090933E0680933D0685EB99
:1059B00095E090934A068093490689EF95E090938D
:1059C0004C0680934B0685EC90E090934E068093B6
:1059D0004D0684EC90E09093500680934F0680EC47
:1059E00090E0909352068093510681EC90E0909362
:1059F00054068093530686EC90E09093560680936D
:105A0000550684E08093570683E08093580687E02C
:105A10008093590685E080935A0681E080935B0667
:105A20000895CF93DF930E94F3290E94B704CEEC30
:105A3000DBE20E9490042097E1F30E94CE2BF9CF85
:105A40000895CF92DF92EF92FF920F931F93CF931F
:105A5000DF937C016B018A01C0E0D0E00FC0D6016A
:105A60006D916D01D701ED91FC910190F081E02DD8
:105A7000C7010995C80FD91F015010400115110524
:105A800071F7CE01DF91CF911F910F91FF90EF90B1
:105A9000DF90CF900895CF93DF93DB010D9000202E
:105AA000E9F71197A61BB70BEC01E881F981028099
:105AB000F381E02DAD010995DF91CF9108950E940A
:105AC0004B2D08952F923F924F925F926F927F924B
:105AD0008F929F92AF92BF92CF92DF92EF92FF92FE
